:020000040800F2
:100000008851022465030008615E0008E15B000876
:10001000595E0008D9060008A96F0008000000001A
:1000200000000000000000000000000081620008E5
:10003000190C000800000000715E0008F162000861
:100040007F0300087F0300087F0300087F03000888
:100050007F0300087F0300087F0300087F03000878
:100060007F0300087F0300087F03000801070008E2
:10007000110700087F0300087F0300087F030008C2
:100080007F0300087F0300087F030008310C00088D
:10009000510C0008410C0008610C00087F030008A7
:1000A0007F0300087F0300087F0300087F03000828
:1000B0007F030008F16400087F0300087F03000845
:1000C0007F0300087F0300087F0300087F03000808
:1000D0007F0300087F030008996F00087F03000872
:1000E0007F0300087F030008000000007F03000872
:1000F0007F0300087F0300087F0300087F030008D8
:100100007F0300087F0300087F0300087F030008C7
:100110007F0300087F0300087F0300087F030008B7
:100120007F0300087F0300087F0300087F030008A7
:100130007F0300087F0300087F0300087F03000897
:1001400000000000000000000000000000000000AF
:100150007F0300087F0300087F0300087F03000877
:100160007F0300087F0300087F0300087F03000867
:100170007F0300087F0300087F03000800000000E1
:100180007F0300087F0300087F0300087F03000847
:100190007F0300087F0300087F0300087F03000837
:1001A0007F0300087F0300087F0300087F03000827
:1001B0007F0300087F0300087F0300087F03000817
:1001C0007F0300087F0300087F0300087F03000807
:1001D0007F0300087F0300087F0300087F030008F7
:1001E0007F0300087F0300087F0300087F030008E7
:1001F0007F0300087F0300087F0300087F030008D7
:100200007F0300087F0300087F0300087F030008C6
:100210007F0300087F0300087F0300087F030008B6
:100220007F0300087F0300087F0300080000000030
:100230007F0300087F030008000000007F03000820
:100240007F0300087F0300087F0300087F03000886
:100250007F0300087F0300087F0300087F03000876
:100260007F0300087F0300087F0300087F03000866
:100270007F0300087F0300087F03000800000000E0
:100280007F0300087F0300087F03000800000000D0
:10029000000000007F03000800F002F800F052F8B0
:1002A00014A696E8000CB244B344DA4501D100F03C
:1002B00049F8BAE80F000FA696E83000A5EB040550
:1002C00004EB0607AAEB0704A7F101074FEA15158F
:1002D0004FEA3414A4F10104AC4201D300F032F827
:1002E00013F0010F18BFFB1A43F0010300F001F8EF
:1002F000DBE71847348D0000548D0000103A24BF0E
:1003000078C878C1FAD8520724BF30C830C144BF7A
:1003100004680C6070470000704700000023002450
:1003200000250026103A28BF78C1FBD8520728BF05
:1003300030C148BF0B6070471FB508F0CFFD1FBD2F
:1003400010B510BD00F04FF91146FFF7F5FF06F0AC
:1003500027FF00F06DF903B4FFF7F2FF03BC00F0D4
:1003600075F900000948804709480047FEE7FEE7A5
:10037000FEE7FEE7FEE7FEE7FEE7FEE7FEE7FEE755
:1003800004480549054A064B7047000021640008EF
:1003900099020008884D002488510224884D0224C7
:1003A000884D022453EA020C00F069802DE9F04BDD
:1003B0004FF00006002B1FBFB3FA83F503FA05F4D4
:1003C00024FA05F65E4012BF1643B2FA82F502FA2D
:1003D00005F4C5F120051EBF22FA05FC44EA0C0411
:1003E000203556EA044C4FEA144418BF641C4FF001
:1003F00000084FF00009904271EB030C39D300293B
:1004000019BFB1FA81F701FA07F6B0FA80F700FADE
:1004100007F6C7F120071EBF20FA07FC46EA0C06C4
:100420002037B6FBF4FCA7EB0507103F07F01F0BC6
:10043000CBF120062CFA06F60CFA0BFB44BFB346B0
:100440000026202FA4BF5E464FF0000B5BEA060C8F
:1004500008BF4FF0010B19EB0B0948EB0608ABFB8B
:10046000027C06FB02CC0BFB03CCC01B71EB0C0126
:10047000C1E70B46024641464846BDE8F08B13B53E
:10048000084318BF4FF0FF300146AFF30080BDE8CE
:100490001C407047032A40F2308010F0030C00F03B
:1004A000158011F8013BBCF1020F624498BF11F8AE
:1004B00001CB00F8013B38BF11F8013BA2F1040267
:1004C00098BF00F801CB38BF00F8013B11F00303DF
:1004D00000F05780083AC0F0088051F8043B083A11
:1004E00051F804CBA0E80810F5E7121D5CBF51F8E5
:1004F000043B40F8043BAFF30080D20724BF11F85F
:10050000013B11F801CB48BF11F8012B24BF00F8C3
:10051000013B00F801CB48BF00F8012B704702F007
:10052000FF0343EA032242EA024200F002B84FF01E
:10053000000200B5134694469646203922BFA0E833
:100540000C50A0E80C50B1F12001BFF4F7AF09073F
:1005500028BFA0E80C5048BF0CC05DF804EB890030
:1005600028BF40F8042B08BF704748BF20F8022B73
:1005700011F0804F18BF00F8012B7047704770478B
:10058000704710B5203AC0F00B80B1E81850A0E8D1
:100590001850B1E81850A0E81850203ABFF4F5AF51
:1005A0005FEA027C24BFB1E81850A0E8185044BFAD
:1005B00018C918C0BDE810405FEA827C24BF51F81A
:1005C000043B40F8043B08BF7047D20728BF31F80E
:1005D000023B48BF11F8012B28BF20F8023B48BF5F
:1005E00000F8012B7047754600F02CF8AE46050068
:1005F0006946534620F00700854618B020B5FFF73E
:10060000BFFEBDE820404FF000064FF000074FF05E
:1006100000084FF0000BAC46ACE8C009ACE8C009DC
:10062000ACE8C009ACE8C00921F007018D4670476D
:1006300010B50446AFF300802046BDE81040FFF738
:100640008ABE00000048704720000024014918209D
:10065000ABBEFEE72600020070470000000000006D
:10066000C0E9051240F60801018200210160C0F8CE
:100670000310C0E902117047002181608181704739
:1006800010B5024600784FF0000C02F81C0F32F84B
:100690001B0C12F8181CA2F8010012F8190C12F821
:1006A000173C890012F8164CC2F803C041EAC0009A
:1006B00032F8041C40EA430E40F20000C2F200404F
:1006C00012F80B3C44EA0E04D471D0F804C052F87E
:1006D000080CBDE810406047FEE700000000000085
:1006E00040F2CC00C2F200400178007E0F39B1FA2E
:1006F00081F1B0FA80F049094009084370470000D1
:1007000040F22810C2F2004000F0BABE0000000023
:1007100040F2A010C2F2004000F0B2BE00000000A3
:1007200040F20F42D0F800C0C4F20202944510DC3F
:100730006F22C4F20202944520DC3F22C4F202027E
:10074000944536DC1022C4F20202944554D028228B
:100750004EE040F26F42C4F2020294451ADC40F2CD
:100760003F42C4F2020294452ADC40F21042C4F235
:100770000202944540D040F2284239E09F22C4F260
:100780000202944525DC7022C4F20202944533D063
:1007900088222DE040F29F42C4F2020294451FDC01
:1007A00040F27042C4F20202944525D040F28842E1
:1007B0001EE04022C4F2020294451DD0582217E0E8
:1007C00040F24042C4F20202944515D040F2584231
:1007D0000EE0A022C4F2020294450DD0B82207E038
:1007E00040F2B842C4F20202944505D040F2A04261
:1007F000C4F20202944517D10CF0F8024AF6AB237A
:10080000103ACAF6AA23A2FB033109A35F2AC1F357
:1008100002115B5C40F2FF312CEA0101C36588BF25
:1008200004318165084670472CF0FF01F9E700BFED
:10083000000610160006101670B540F26F44D0F88E
:1008400000C0C4F20204D0F858E0A44519DC9F258A
:10085000C4F20205AC4531DC5725C4F20205AC45B3
:1008600056DC1025C4F20205AC4500F09280282524
:10087000C4F20205AC4500F08C804025C4F20205AC
:1008800084E045F22F45C5F60205AC452BDC40F26D
:10089000B745C4F20205AC4548DC40F27045C4F2ED
:1008A0000205AC4575D040F28845C4F20205AC455E
:1008B0006FD040F2A045C4F2020567E040F2274540
:1008C000C4F20205AC4540DCA025C4F20205AC45EB
:1008D0005FD0B825C4F20205AC455AD040F21045AD
:1008E000C4F2020552E045F26B45C5F60205AC457F
:1008F0003CDC45F23045C5F60205AC4549D045F231
:100900004445C5F60205AC4543D045F258453BE0A9
:100910005825C4F20205AC453BD07025C4F202054F
:10092000AC4536D08825C4F202052FE040F2B84528
:10093000C4F20205AC452CD045F20845C5F60205C7
:10094000AC4526D045F21C451EE040F22845C4F2D5
:100950000205AC451DD040F24045C4F20205AC454D
:1009600017D040F25845C4F202050FE045F26C453D
:10097000C5F60205AC450CD045F29445C5F6020516
:10098000AC4506D045F28045C5F60205AC4540F0C1
:10099000CC80456EC66E002E866E6E601CBFD0E9A0
:1009A0001C566E60A44515DC9F24C4F20204A445C5
:1009B0002BDC5724C4F20204A4454EDC1024C4F2FC
:1009C0000204A44576D02824C4F20204A44571D0C0
:1009D00040246BE045F22F44C5F60204A44527DC11
:1009E00040F2B744C4F20204A44542DC40F2704431
:1009F000C4F20204A4455DD040F28844C4F202046B
:100A0000A44557D040F2A04450E040F22744C4F23D
:100A10000204A4453CDCA024C4F20204A44549D04D
:100A2000B824C4F20204A44544D040F210443DE08E
:100A300045F26B44C5F60204A44553DC45F230444C
:100A4000C5F60204A4455FD045F24444C5F602044D
:100A5000A44559D045F2584452E05824C4F2020447
:100A6000A44527D07024C4F20204A44522D08824CF
:100A70001CE040F2B844C4F20204A4451AD045F286
:100A80000844C5F60204A4453ED045F21C4437E0B4
:100A900040F22844C4F20204A4450BD040F2404482
:100AA000C4F20204A44505D040F25844C4F2020442
:100AB000A4453AD18468C06D00F01F003F2505FAB7
:100AC00000F0CEF80800DCF80000402C20F4802074
:100AD000CCF80000CCF8043023D1CCF80820CCF8B6
:100AE0000C1070BD45F26C44C5F60204A4450BD051
:100AF00045F28044C5F60204A44505D045F294446D
:100B0000C5F60204A44510D1C46D012504F01F04EC
:100B1000806805FA04F4CEF804404028CCF804308C
:100B2000DBD0CCF80810CCF80C2070BD0000000021
:100B30002DE9F04182B041F20400CEF200000168DC
:100B4000009140F29801C2F200410A78002A40F276
:100B50009402C2F2004212D101230B700368019388
:100B600040F29003019FC2F200431E68B74202D2D6
:100B70001768013717600068186000200870106857
:100B8000009D4FF0FF310026E0FB015640F284004B
:100B9000C2F2004000233146076828463A46FFF774
:100BA00001FC8046A0FB070201FB072100232D1A50
:100BB00040F28800C2F200408E4131460768284664
:100BC0003A46FFF7EFFB044640F28C0280B2C2F2D5
:100BD0000042784300231268281A66F10001FFF7EB
:100BE000E1FB80B24FF47A7108FB01F101EE100ACB
:100BF0009FED072A11FA84F100EE101AB8EE411A9F
:100C0000B8EE400AA1EE020A02B0BDE8F08100BFD2
:100C10006F12833A000000007047000000000000DF
:100C2000EFF3108072B600BFFEE700000000000086
:100C300040F21820C2F2004001F0E2BF00000000C4
:100C400040F21820C2F2004001F0DABF00000000BC
:100C500040F2B820C2F2004001F0D2BF0000000014
:100C600040F2B820C2F2004001F0CABF000000000C
:100C7000F0B5D1E900C4D1F808E00D692CB14EEA15
:100C80000C04254345F0804C03E045EA8C4444EADB
:100C90000E0C856ED0F88470D1E907466B438D69E0
:100CA00044EA0660D1F814E0CC68054307EB830002
:100CB00045EA0E0647F823C046EA04434360CB6882
:100CC000002B08BFF0BD48F6C07C0830013200237D
:100CD000C0F6000CD71857F8017CC750CF68043312
:100CE0001CF80770BB42F5D3F0BD00000000000007
:100CF0002DE9F041044602F0F3FC14B3054694F8E4
:100D00003500022820D140F20F462768C4F20206BF
:100D100040F26F48B7426FF00E00C4F2020817DCD1
:100D20006F21C4F202018F4223DC3F21C4F2020191
:100D30008F4239DC1021C4F202018F4258D02821A1
:100D400051E00120BDE8F08180206065012040E293
:100D500047451ADC40F23F41C4F202018F422ADCCF
:100D600040F21041C4F202018F4241D040F22841CA
:100D700039E09F21C4F202018F4225DC7021C4F2C8
:100D800002018F4234D088212DE040F29F41C4F20D
:100D900002018F421FDC40F27041C4F202018F4217
:100DA00026D040F288411EE04021C4F202018F4269
:100DB0001ED0582117E040F24041C4F202018F4298
:100DC00016D040F258410EE0A021C4F202018F4239
:100DD0000ED0B82107E040F2B841C4F202018F42C0
:100DE00006D040F2A041C4F202018F42394607D139
:100DF0003946386820F01E0041F8140B6FF080006F
:100E00000A68474500EA0200086019DC9F20C4F226
:100E10000200874231DC5720C4F20200874256DCD0
:100E20001020C4F20200874200F091802820C4F212
:100E30000200874200F08B804020C4F2020084E070
:100E400045F22F40C5F6020087422BDC40F2B74046
:100E5000C4F20200874248DC40F27040C4F2020053
:100E6000874274D040F28840C4F2020087426ED0BC
:100E700040F2A040C4F2020067E040F22740C4F212
:100E80000200874240DCA020C4F2020087425ED00C
:100E9000B820C4F20200874259D040F21040C4F298
:100EA000020052E045F26B40C5F6020087423CDC8E
:100EB00045F23040C5F60200874248D045F2444032
:100EC000C5F60200874242D045F258403BE0582028
:100ED000C4F2020087423AD07020C4F20200874276
:100EE00035D08820C4F202002FE040F2B840C4F2AE
:100EF000020087422BD045F20840C5F60200874227
:100F000025D045F21C401EE040F22840C4F2020009
:100F100087421CD040F24040C4F20200874216D003
:100F200040F25840C4F202000FE045F26C40C5F6B2
:100F3000020087420BD045F29440C5F6020087427A
:100F400005D045F28040C5F60200874204D1206EEC
:100F5000016821F480710160386820F00100386078
:100F60003868C0070BD002F0BBFB401B0628F7D344
:100F700020206065032084F83500012029E12068E5
:100F8000B04210DC6F21C4F2020188421CDC3F2118
:100F9000C4F20201884232DC1021C4F2020188420C
:100FA00050D028214AE040451ADC40F23F41C4F2CB
:100FB000020188422ADC40F21041C4F20201884258
:100FC00040D040F2284139E09F21C4F2020188421A
:100FD00025DC7021C4F20201884233D088212DE043
:100FE00040F29F41C4F2020188421FDC40F270418E
:100FF000C4F20201884225D040F288411EE040211F
:10100000C4F2020188421DD0582117E040F240414D
:10101000C4F20201884215D040F258410EE0A021EE
:10102000C4F2020188420DD0B82107E040F2B84175
:10103000C4F20201884205D040F2A041C4F202018C
:10104000884259D1D4E9161202F01F023F2303FA55
:1010500002F28A60404559DC9F21C4F202018842B5
:1010600014DC5721C4F20201884226DC1021C4F2AC
:101070000201884200F09D802821C4F202018842CA
:1010800000F097804021C4F2020190E040F2274135
:10109000C4F2020188421EDCA021C4F2020188428F
:1010A00000F08780B821C4F20201884200F08180FC
:1010B00040F21041C4F2020179E05821C4F2020169
:1010C000884276D07021C4F20201884271D0882112
:1010D000C4F202016BE040F22841C4F202018842EE
:1010E00067D040F24041C4F20201884261D040F230
:1010F0005841C4F202015AE0D4E9161202F01F026C
:10110000012303FA02F24A604045A5DD45F22F4172
:10111000C5F60201884216DC40F2B741C4F2020172
:10112000884225DC40F27041C4F20201884240D07E
:1011300040F28841C4F2020188423AD040F2A04114
:10114000C4F2020133E045F26B41C5F60201884268
:101150001DDC45F23041C5F60201884229D045F236
:101160004441C5F60201884223D045F258411CE0B3
:1011700040F2B841C4F2020188421AD045F2084157
:10118000C5F60201884214D045F21C410DE045F23B
:101190006C41C5F6020188420BD045F29441C5F678
:1011A0000201884205D045F28041C5F6020188421D
:1011B0000BD1616EA26EE06E4A6030B1016821F41D
:1011C00080710160D4E91C014160012084F8350080
:1011D0000020002184F83410BDE8F08100000000F8
:1011E000F0B190F83510022918D180B540F20F42C5
:1011F0000168C4F20202914214DC6F23C4F20203BC
:10120000994224DC3F23C4F2020399423ADC1023C2
:10121000C4F20203994258D0282352E0802141654C
:101220000120704740F26F43C4F2020399421ADC76
:1012300040F23F43C4F2020399422ADC40F21043D9
:10124000C4F20203994240D040F2284339E09F2380
:10125000C4F20203994225DC7023C4F202039942CE
:1012600033D088232DE040F29F43C4F20203994219
:101270001FDC40F27043C4F20203994225D040F2D1
:1012800088431EE04023C4F2020399421DD0582334
:1012900017E040F24043C4F20203994215D040F2F5
:1012A00058430EE0A023C4F2020399420DD0B823A4
:1012B00007E040F2B843C4F20203994205D040F27D
:1012C000A043C4F20203994271D191424FF004024B
:1012D00080F8352010DC6F20C4F20200814220DC4F
:1012E0003F20C4F20200814236DC1020C4F202002A
:1012F000814253D028204EE040F26F40C4F20200F9
:1013000081421ADC40F23F40C4F2020081422ADCF2
:1013100040F21040C4F2020081423FD040F2284027
:1013200039E09F20C4F20200814225DC7020C4F223
:101330000200814232D088202DE040F29F40C4F26A
:10134000020081421FDC40F27040C4F20200814280
:1013500024D040F288401EE04020C4F202008142C6
:101360001CD0582017E040F24040C4F202008142F5
:1013700014D040F258400EE0A020C4F20200814296
:101380000CD0B82007E040F2B840C4F2020081421D
:1013900004D040F2A040C4F202008142086820F06C
:1013A000010008600021BDE88040084670470A68D7
:1013B00022F00E020A6045F25742C5F6020291423F
:1013C0000A6822F001020A600EDC45F22F42C5F6DF
:1013D0000202914217DC45F20842C5F60202914230
:1013E00026D045F21C421FE045F27F42C5F60202BC
:1013F000914211DC45F25842C5F60202914217D0E3
:1014000045F26C4210E045F23042C5F602029142CC
:101410000ED045F2444207E045F29442C5F602027E
:10142000914205D045F28042C5F6020291421AD19E
:10143000D0E9181CD0E916E30A6822F480720A6029
:1014400003F01F01012202FA01F1CEF80410816EAF
:10145000CCF80410C16E31B10A6822F480720A60BF
:10146000D0E91C124A60012180F83510026D00217C
:10147000002A80F8341096D0904793E700000000CF
:101480002DE9F04381B00021009140F20C010446A7
:10149000C2F2004148F2B512C1F64E32A56D09689C
:1014A00040F26F490068C4F20209A1FB02184845E6
:1014B0002E682A6815DC9F21C4F2020188422BDCC9
:1014C0005721C4F2020188424FDC1021C4F202010C
:1014D000884278D02821C4F20201884273D040218A
:1014E0006CE045F22F41C5F60201884227DC40F24C
:1014F000B741C4F20201884243DC40F27041C4F2B9
:10150000020188425FD040F28841C4F20201884261
:1015100059D040F2A04151E040F22741C4F202010B
:1015200088423DDCA021C4F2020188424BD0B821A0
:10153000C4F20201884246D040F210413EE045F23A
:101540006B41C5F60201884275DC45F23041C5F6B3
:101550000201884200F0828045F24441C5F6020152
:1015600088427BD045F2584173E05821C4F2020111
:10157000884228D07021C4F20201884223D08821F9
:101580001CE040F2B841C4F2020188421BD045F28F
:101590000841C5F60201884260D045F21C4158E07E
:1015A00040F22841C4F2020188420CD040F240418E
:1015B000C4F20201884206D040F25841C4F202014E
:1015C000884240F04E84E16D082201F01F018A40FC
:1015D000324200F0168140F20F43C4F202039842F7
:1015E0004FF0040313DC6F27C4F20207B84200F384
:1015F00091803F27C4F20207B84200F3D28010273F
:10160000C4F20207B84200F0F0802827E8E048451D
:1016100000F38C8040F23F47C4F20207B84200F367
:10162000C78040F21047C4F20207B84200F0DD80E4
:1016300040F22847D4E045F26C41C5F602018842E9
:101640000CD045F28041C5F60201884206D045F231
:101650009441C5F60201884240F003840368E16DBD
:1016600001F01F01042707FA01F6164218BF13F014
:1016700004072CD1022707FA01F6164218BF13F00F
:10168000020762D1CA40120740F1EB8313F008024F
:1016900000F0E78340F20F42C4F2020290426FF082
:1016A0001C0200F305836F23C4F20203984200F387
:1016B00024833F23C4F20203984200F3698310237A
:1016C000C4F20203984200F0BB832823B2E319045A
:1016D0006E605ED4990600F1D88340F20F41C4F2E7
:1016E000020188426FF0080100F3F5826F22C4F214
:1016F0000202904200F30E833F22C4F202029042A3
:1017000000F34D831022C4F20202904200F0BA832B
:101710002822B1E39F27C4F20207B84251DC7027A8
:10172000C4F20207B84260D0882759E040F29F47D0
:10173000C4F20207B8424BDC40F27047C4F2020721
:10174000B84252D040F288474AE019046E6000F176
:101750009B82990600F1CA8340F20F41C4F2020154
:1017600088426FF0140100F3E2826F22C4F2020299
:10177000904200F31B833F22C4F20202904200F326
:1017800087831022C4F20202904200F0A68328222E
:101790009DE3D80300F17983A16C002940F0A9836F
:1017A0005FE34027C4F20207B8421ED0582717E073
:1017B00040F24047C4F20207B84216D040F2584700
:1017C0000EE0A027C4F20207B8420ED0B82707E007
:1017D00040F2A047C4F20207B84206D040F2B84730
:1017E000C4F20207B84218BF082307681F4208D096
:1017F000036823F004030360AA60626D42F00102F3
:10180000626501228A4032426FD040F20F43C4F237
:101810000203984210DC6F23C4F2020398421CDCDE
:101820003F23C4F20203984232DC1023C4F20203C5
:10183000984251D028234AE048451ADC40F23F4301
:10184000C4F2020398422ADC40F21043C4F20203BD
:10185000984241D040F2284339E09F23C4F202036A
:10186000984225DC7023C4F20203984234D08823C6
:101870002DE040F29F43C4F2020398421FDC40F285
:101880007043C4F20203984226D040F288431EE01F
:101890004023C4F2020398421ED0582317E040F2BE
:1018A0004043C4F20203984216D040F258430EE07F
:1018B000A023C4F2020398420ED0B82307E040F2FE
:1018C000B843C4F20203984206D040F2A043C4F2E7
:1018D0000203984240F0E081436903F0800323B1A2
:1018E000AA60626D42F00202626504228A403242BE
:1018F0006FD040F20F43C4F20203984210DC6F2312
:10190000C4F2020398421CDC3F23C4F20203984253
:1019100032DC1023C4F20203984251D028234AE05B
:1019200048451ADC40F23F43C4F2020398422ADCE5
:1019300040F21043C4F20203984241D040F22843DF
:1019400039E09F23C4F20203984225DC7023C4F2DD
:101950000203984234D088232DE040F29F43C4F222
:10196000020398421FDC40F27043C4F20203984223
:1019700026D040F288431EE04023C4F2020398427E
:101980001ED0582317E040F24043C4F202039842AD
:1019900016D040F258430EE0A023C4F2020398424E
:1019A0000ED0B82307E040F2B843C4F202039842D5
:1019B00006D040F2A043C4F20203984240F0728184
:1019C000036803F0020323B1AA60626D42F00402CF
:1019D0006265102202FA01F131427DD040F20F42DD
:1019E000C4F2020290424FF0080210DC6F23C4F2EE
:1019F000020398421CDC3F23C4F20203984232DC0B
:101A00001023C4F20203984251D028234AE04845EB
:101A10001ADC40F23F43C4F2020398422ADC40F24F
:101A20001043C4F20203984241D040F2284339E007
:101A30009F23C4F20203984225DC7023C4F2020300
:101A4000984234D088232DE040F29F43C4F2020331
:101A500098421FDC40F27043C4F20203984226D041
:101A600040F288431EE04023C4F2020398421ED095
:101A7000582317E040F24043C4F20203984216D0C4
:101A800040F258430EE0A023C4F2020398420ED065
:101A9000B82307E040F2A043C4F20203984206D004
:101AA00040F2B843C4F20203984218BF042203680C
:101AB000134211D0A96001684903016806D4C90521
:101AC00006D4016821F00801016001E0080352D446
:101AD000216C09B120468847E06D00F01F012020ED
:101AE00000FA01F2324200F0A68040F20F43206873
:101AF000C4F2020398424FF0100310DC6F27C4F2C7
:101B00000207B8421CDC3F27C4F20207B84236DCA9
:101B10001027C4F20207B84255D028274EE04845A6
:101B20001ADC40F23F47C4F20207B8422EDC40F212
:101B30001047C4F20207B84245D040F228473DE0C2
:101B40009F27C4F20207B84229DC7027C4F20207BB
:101B5000B84238D0882731E040F29F47C4F20207EC
:101B6000B84223DC40F27047C4F20207B8422AD0E0
:101B700040F2884722E0A16C0029ABD1ACE74027B6
:101B8000C4F20207B8421ED0582717E040F240477F
:101B9000C4F20207B84216D040F258470EE0A02720
:101BA000C4F20207B8420ED0B82707E040F2A047BF
:101BB000C4F20207B84206D040F2B847C4F20207A6
:101BC000B84218BF022307681F4234D0AA6094F8B5
:101BD0003520042A026816D122F0160202604269FA
:101BE00022F080024261226C0AB9A26C1AB102682A
:101BF00022F0080202603F208840A860012084F89B
:101C00003500216D27E1510301680CD4C9050ED4BC
:101C1000016821F010010160012084F835000020E6
:101C200084F8340003E0080301D4616C00E0E16B48
:101C300009B120468847606D002800F01281606D70
:101C4000C0071CD0042084F8350020684FEA982192
:101C5000026822F001020260009A013200928A4278
:101C600002D80268D207F7D10068C0074FF003001E
:101C700008BF012084F83500002084F83400E16CAE
:101C8000002940F03681ECE0D80300F12F81616C2F
:101C9000002940F02E81E4E003680023002B7FF44C
:101CA0001FAE22E603680023002B7FF48DAE90E682
:101CB00048454FDC40F23F43C4F20203984200F330
:101CC000828040F21043C4F20203984200F0B880D0
:101CD00040F22843AEE048454BDC40F23F42C4F2BC
:101CE0000202904278DC40F21042C4F202029042BA
:101CF00000F0C88040F22842BEE09F23C4F20203F5
:101D0000984272DC7023C4F20203984200F098807B
:101D100088238FE09F22C4F2020290426CDC702282
:101D2000C4F20202904200F0AD808822A4E048454F
:101D300069DC40F23F42C4F20202904200F3AF80FD
:101D400040F21042C4F20202904200F0C68040F21B
:101D50002842BCE040F29F43C4F20203984261DC97
:101D600040F27043C4F20203984269D040F28843C3
:101D700060E040F29F42C4F20202904274DC40F202
:101D80007042C4F2020290427CD040F2884273E07A
:101D90004023C4F20203984252D058234AE0402222
:101DA000C4F2020290426DD0582265E09F22C4F234
:101DB000020290427CDC7022C4F20202904200F0E7
:101DC0008C80882283E040F24043C4F202039842B0
:101DD00036D040F258432DE040F24042C4F20202B5
:101DE00090424FD040F2584246E0A023C4F2020392
:101DF000984225D0B8231DE0A022C4F202029042EE
:101E000040D0B82238E040F29F42C4F20202904231
:101E100055DC40F27042C4F2020290425DD040F2C2
:101E2000884254E040F2A043C4F20203984207D033
:101E300040F2B843C4F20203984218BF6FF00E029A
:101E400003681A400260012000FA01F169606065D0
:101E500084F83500E16C00294FF0000084F834006C
:101E600047D101B0BDE8F08340F2A042C4F20202C3
:101E7000904207D040F2B842C4F20202904218BF2A
:101E80006FF00401026811400160216C89BBE8E732
:101E90004022C4F2020290421FD0582217E040F2C2
:101EA0004042C4F20202904217D040F258420EE083
:101EB000A022C4F2020290420FD0B82207E040F202
:101EC000A042C4F20202904207D040F2B842C4F2EB
:101ED0000202904218BF6FF00A01026811400160CF
:101EE000012084F83500002084F83400E16B0029DB
:101EF000B7D0204601B0BDE8F0430847000000001D
:101F00002DE9F041044601F0EBFBECB140F26F48E3
:101F100005462068C4F20208404518DC9F21C4F23F
:101F2000020188422EDC5721C4F20201884254DCAF
:101F30001021C4F2020188427DD02821C4F202019E
:101F4000884278D0402171E00120BDE8F08145F25F
:101F50002F41C5F60201884227DC40F2B741C4F2A6
:101F60000201884245DC40F27041C4F2020188421D
:101F700061D040F28841C4F2020188425BD040F255
:101F8000A04153E040F22741C4F2020188423FDC05
:101F9000A021C4F2020188424DD0B821C4F202014E
:101FA000884248D040F2104140E045F26B41C5F60E
:101FB0000201884200F3928045F23041C5F60201E9
:101FC000884200F09D8045F24441C5F602018842F6
:101FD00000F0968045F258418EE05821C4F202018B
:101FE000884228D07021C4F20201884223D088217F
:101FF0001CE040F2B841C4F2020188421BD045F215
:102000000841C5F6020188427AD045F21C4173E0CE
:1020100040F22841C4F2020188420CD040F2404113
:10202000C4F20201884206D040F25841C4F20201D3
:10203000884240F0C580022184F83510002184F8E0
:102040003410016821F00101016000BF20680168BF
:10205000C9070CD001F044FB401B0628F6D3202012
:102060006065032084F835000120BDE8F08148F266
:102070003F0204F108060168CFF61062114065695D
:102080004CCE1143A2691943E3693143266A0D43DB
:10209000616A2B43042943EA060343EA020303D19E
:1020A000D4E90B652E43334341F20006C5F60046E2
:1020B0003668B6F1005F6CD36568A5F12906202E5D
:1020C00005D23F27CCF2C037F740FF075CD1A5F11E
:1020D0004F060025042E38BF012556E045F26C411D
:1020E000C5F6020188420BD045F28041C5F60201D7
:1020F000884205D045F29441C5F6020188425FD17D
:1021000004F1080E022184F83510002184F83410FF
:102110000168A3699EE80450A2F18005E769B5FA59
:1021200085F566696D09402A4FEA853543EA07025D
:102130006FF3101142EA060208BF102541EADC01E4
:1021400042EA0E022943236A41EAD2014AF6F832F2
:10215000CAF2FD724CF6CD470244CCF6CC4741EAB8
:102160001311A2FB072301606FF0030000EA930044
:10217000E0652046FEF7D4FAE16D012201F01F016F
:1021800002FA01F1416045E00125002D18BF43F43A
:10219000801303600429436923F0070341EA030124
:1021A0002DD1D4E90A5341EA050143B3B2F5005FEA
:1021B00008D09AB9022D16D0012D09D09DB115E095
:1021C00040204DE7032D11D8DFE805F00A0D0A0283
:1021D000A3F1C072B2FA82F2520908E0032D01D2D3
:1021E000012204E002D1C3F3006200E0002232B118
:1021F00040206065012084F83500BDE8F081416130
:102200002046FEF78DFAE16D3F2201F01F0102FA30
:1022100001F181602068404519DC9F21C4F2020170
:10222000884231DC5721C4F20201884256DC102179
:10223000C4F20201884200F092802821C4F2020117
:10224000884200F08C804021C4F2020184E045F213
:102250002F41C5F6020188422BDC40F2B741C4F29F
:102260000201884248DC40F27041C4F20201884217
:1022700075D040F28841C4F2020188426FD040F22A
:10228000A041C4F2020167E040F22741C4F202011A
:10229000884240DCA021C4F2020188425FD0B8210C
:1022A000C4F2020188425AD040F21041C4F2020145
:1022B00052E045F26B41C5F6020188423CDC45F232
:1022C0003041C5F60201884249D045F24441C5F685
:1022D0000201884243D045F258413BE05821C4F204
:1022E000020188423BD07021C4F20201884236D0FC
:1022F0008821C4F202012FE040F2B841C4F2020189
:1023000088422CD045F20841C5F60201884226D009
:1023100045F21C411EE040F22841C4F2020188420D
:102320001DD040F24041C4F20201884217D040F271
:102330005841C4F202010FE045F26C41C5F60201BA
:1023400088420CD045F29441C5F60201884206D07D
:1023500045F28041C5F60201884240F0D08045F246
:10236000574C45F6FC01C5F6020CC5F60201604566
:102370000EDC45F22F43C5F60203984217DC45F206
:102380000843C5F60203984226D045F21C431FE0DD
:1023900045F27F43C5F60203984211DC45F25843EB
:1023A000C5F60203984217D045F26C4310E045F29F
:1023B0003043C5F6020398420ED045F2444307E08D
:1023C00045F29443C5F60203984205D045F2804396
:1023D000C5F60203984250D100F0FC034CF6CD47FD
:1023E000083BCCF6CC47A3FB0737A1F1FC05A1F1D4
:1023F0007C063B0905EB83022266A26803F01F03FB
:102400000127802A666607FA03F2A26601D100223C
:1024100062606268A56ED4E91876D3B2013A072AE1
:102420003B60756015D85E1E072E62D8604501F1CD
:10243000440213DC45F22F47C5F60207B8423CDCE4
:1024400045F20847C5F60207B8424BD045F21C4793
:1024500044E000206067C4E91B0050E045F27F477C
:10246000C5F60207B84231DC45F25847C5F6020707
:10247000B84237D045F26C4730E000F0F8034AF636
:10248000AB27103BCAF6AA27A3FB073740F20F433E
:10249000C4F2020308253E09984203F1AA0233461A
:1024A00088BF05EB171340F600059042C4F2020501
:1024B00028BF334605F180069CE745F23047C5F654
:1024C0000207B8420ED045F2444707E045F2804784
:1024D000C5F60207B84205D045F29447C5F6020793
:1024E000B84213D101EB8300E06601202267B040BF
:1024F000606704F16C02002307CA03604A60002091
:102500006065012184F83510BDE8F08140F60000D7
:10251000C4F2020000F1FC0100F5A072E2E7000045
:1025200038B1B0B5054690F83400012803D1022037
:10253000B0BD01207047012085F8340095F83500C2
:10254000012828D1022085F8350000206865286818
:10255000046824F0010404602846FEF76DF940F297
:102560000F422868C4F2020240F26F419042C4F266
:10257000020118DC6F23C4F20203984224DC3F23DB
:10258000C4F2020398423ADC1023C4F202039842D8
:1025900059D0282352E04FF400606865002085F888
:1025A00034000120B0BD88421ADC40F23F43C4F23F
:1025B000020398422ADC40F21043C4F2020398421C
:1025C00041D040F2284339E09F23C4F202039842ED
:1025D00025DC7023C4F20203984234D088232DE016
:1025E00040F29F43C4F2020398421FDC40F2704362
:1025F000C4F20203984226D040F288431EE04023F2
:10260000C4F2020398421ED0582317E040F2404320
:10261000C4F20203984216D040F258430EE0A023C1
:10262000C4F2020398420ED0B82307E040F2B84348
:10263000C4F20203984206D040F2A043C4F202035F
:10264000984240F0238103680B2464F34403036041
:102650002B6C1BB10823046823430360884219DCF8
:102660009F23C4F20203984231DC5723C4F20203D1
:10267000984256DC1023C4F20203984200F0918085
:102680002823C4F20203984200F08B804023C4F256
:10269000020384E045F22F43C5F6020398422BDC87
:1026A00040F2B743C4F20203984248DC40F2704360
:1026B000C4F20203984274D040F28843C4F2020389
:1026C00098426ED040F2A043C4F2020367E040F2A9
:1026D0002743C4F20203984240DCA023C4F2020361
:1026E00098425ED0B823C4F20203984259D040F217
:1026F0001043C4F2020352E045F26B43C5F60203F5
:1027000098423CDC45F23043C5F60203984248D07B
:1027100045F24443C5F60203984242D045F258437D
:102720003BE05823C4F2020398423AD07023C4F22B
:102730000203984235D08823C4F202032FE040F20E
:10274000B843C4F2020398422BD045F20843C5F6C1
:102750000203984225D045F21C431EE040F2284374
:10276000C4F2020398421CD040F24043C4F2020378
:10277000984216D040F25843C4F202030FE045F2EB
:102780006C43C5F6020398420BD045F29443C5F65C
:102790000203984205D045F28043C5F602039842F1
:1027A0006ED12B6E1C68E40303D51C6844F480745E
:1027B0001C60EB6E1BB11D6845F480751D60904276
:1027C00010DC6F21C4F2020188421CDC3F21C4F2FC
:1027D0000201884232DC1021C4F2020188424FD04B
:1027E00028214AE088421ADC40F23F41C4F202014B
:1027F00088422ADC40F21041C4F2020188423FD0F4
:1028000040F2284139E09F21C4F20201884225DCD0
:102810007021C4F20201884232D088212DE040F2BA
:102820009F41C4F2020188421FDC40F27041C4F2B1
:102830000201884224D040F288411EE04021C4F2C7
:10284000020188421CD0582117E040F24041C4F2F6
:102850000201884214D040F258410EE0A021C4F297
:10286000020188420CD0B82107E040F2B841C4F21E
:102870000201884204D040F2A041C4F20201884221
:10288000016841F0010101600020B0BD036805242A
:1028900064F3430303602B6C002B3FF4DFAE04238F
:1028A000D9E600000000000090F89830013B012BB1
:1028B0000BD80068836D0B420CD0836D0B408B42AC
:1028C0000CD1C36D43F0020309E000F19C0101202B
:1028D000022221E0C36D43F0010300E00323C3653E
:1028E0008B0504D5D0F8E0301343C0F8E0304B0539
:1028F00004D5D0F8E4301A43C0F8E4204FF6FF7254
:10290000436DC3F6CF720A401A4342658A0F4AF6F6
:1029100014010020C4F200010B681A430A607047DA
:10292000B0B5044690F8980002281AD12068D0F873
:10293000C03013F07C5F19D0D0F8C4309B021AD499
:10294000D0F8C400C0F3044520462B46FEF790F9AA
:1029500020680121A940C0F8D0100020C4F89410CC
:10296000B0BDD4F89C0040F0080008E0D4F89C000A
:1029700040F0200003E0D4F89C0040F40070C4F85C
:102980009C000120B0BD0000704700000000000066
:1029900090F89820013A012A0BD880B50A68002ADD
:1029A000CA680ED00B69072A43EA427E16D18B69AA
:1029B00019E0D0F89C1041F00201C0F89C100120F1
:1029C0007047072A18D10A69D1E906C3120442EAFE
:1029D000032242EA0C0242F0605217E0D1F808C02C
:1029E0004B6943EA8C73006F496800EBC10240F801
:1029F00031E05360002080BD8B68D1E904CE9B0795
:102A000043EAC26242EA0C4242EA0E024968C06EE0
:102A100040F82120002080BD90F898C0BCF1010F43
:102A20000DD19200006842EA0111DDF800C041EAD0
:102A3000430141EA0C01C0F8801000207047D0F833
:102A40009C1041F00401C0F89C1001207047000068
:102A50007047000000000000704700000000000008
:102A600070B590F89850022D11D1402914D1046806
:102A7000D4F8A05015F4FE0F2BD0D4F8A4506D0656
:102A80002CD0D4F8A450ED0130D4002531E0D0F89A
:102A90009C1041F0080125E041290FD10468D4F8C9
:102AA000B05015F4FE0F14D0D4F8B4506D0615D004
:102AB000D4F8B450ED0126D4002527E0056D8D42F1
:102AC00007D900F17C04D0F854E04FF0000C0D461B
:102AD00026E0D0F89C1041F0200103E0D0F89C10D3
:102AE00041F48071C0F89C10012070BDD4F8A05052
:102AF000ED0FD4F8A440C4F3052404EB050E00F157
:102B00007404456C0BE0D4F8B050ED0FD4F8B44029
:102B1000C4F3052404EB050E00F17804C56CF446FB
:102B200005FB0EF6246854F8265015F080455560D4
:102B300054F826E02EF0604508BFCEF38A4504EB3A
:102B4000860E156054F8265005F00055956054F82F
:102B5000264004F000441461BEF80440D461BEF87D
:102B6000064014F00F04D460DEF8044004F480142E
:102B70005461DEF8044004F4001494619EF80740A8
:102B800004F07F041462DEF804404FEAD474546207
:102B90000ED00EF1080548F6C07E0024C0F6000EE7
:102BA0002E5D1E550134D6681EF80660B442F7D378
:102BB000402904D10068C0F8A8C0002070BD412998
:102BC00004D10068C0F8B8C0002070BD1F2907D824
:102BD0000068012202FA01F1C0F89810002070BDCF
:102BE000006801F01F01012202FA01F1C0F89C10F7
:102BF000002070BD000000007047000000000000D1
:102C00002DE9F04F89B004464AF61000C4F20000E6
:102C100001684AF61400C4F200000268206802EA63
:102C20000108056DD0F85490036D0293436D019334
:102C3000036D0493436D0393036D0893436D0793F2
:102C4000036D0693436D0593D0F854A0D0F850B0AF
:102C50005FEACA530ED51BF480710BD04FF480711C
:102C600001654AF610010020C4F200010860204608
:102C7000FFF7C2FF05EA09064AF610095FEA4A5063
:102C8000C4F200094FEA887711D51BF480600ED09A
:102C90002068D0F8DC10D0F8E42011404FF48062B6
:102CA00002650020C9F80000204600F031FCDDE993
:102CB000011000EA010506F4704657B120680021B2
:102CC000016508F00300C9F8000020463946FFF707
:102CD0005BFEDDE9031000EA010705F00F0546B1D0
:102CE0002068314606650020C9F80000204600F043
:102CF00017FC07F0F00645B120682946056500205D
:102D0000C9F80000204600F093FB46B12068314628
:102D100006650020C9F80000204600F0C1FB5FEA0C
:102D20000A500CD51BF4006009D020684FF40061F4
:102D300001650020C9F80000204600F0F5FB5FEABD
:102D40008A5011D51BF400700ED02068D0F8D8102E
:102D5000D0F8E02011404FF4007202650020C9F85D
:102D60000000204600F0D8FB5FEA0A300CD51BF4C7
:102D7000002009D020684FF4002101650020C9F827
:102D80000000204600F050FB5FEACA300CD51BF46F
:102D9000803009D020684FF4803101650020C9F8E7
:102DA0000000204600F0B0FB5FEA4A30DDE9051084
:102DB00000EA01050CD51BF4802009D020684FF4EF
:102DC000802101650020C9F80000204600F098FB32
:102DD0005FEA8A30DDE9071000EA010005F0607162
:102DE0000FD51BF400320CD022684FF4003313656A
:102DF0000022C9F80020D4F89C2042F08002C4F8D8
:102E00009C2000F0715539B1206801650020C9F897
:102E100000002046FFF720FE4DB120680565002028
:102E2000C9F80000D4F89C002843C4F89C0020682E
:102E3000A9F50161884209D0D4F89C00002867D028
:102E4000204609B0BDE8F04FFFF702BE6068816818
:102E50008907F1D0016A426A036A476A114003EAAE
:102E6000070202F03005D0F82080D0F82490D0F886
:102E700020B0D0F824A0026A089211F00F01426A33
:102E80000792466A026A069203D00162204600F069
:102E90002BFB08EA09072DB1606829460562204628
:102EA00000F02AFB70060BEA0A0607F4C0750ED57F
:102EB000069810F040000AD060684023C16BC26BD6
:102EC000090C02F03F020362204600F011FBDDE92D
:102ED000071000EA010706F4FC462DB16068294698
:102EE0000562204600F0FCFA07F4F02036B1616874
:102EF0000E62D4F89C103143C4F89C1000289BD07B
:102F000061680862D4F89C100843C4F89C0093E7F9
:102F100009B0BDE8F08F000040B32DE9F04F83B059
:102F20004AF200080446C4F200080068404502D195
:102F300008F58070606094F8980028B9002084F843
:102F40009900204600F0CCF92068816921F0100139
:102F5000816100F0C5FB054620688169090707D536
:102F600000F0BEFB401B0B28F6D312E00120704797
:102F7000816941F00101816100F0B2FB054600BFAB
:102F800020688169C90711D100F0AAFB401B0B28FA
:102F9000F6D30120D4F89C100843C4F89C00032009
:102FA00084F89800012003B0BDE8F08F816941F0FA
:102FB00002018161217C826922F04002012918BF4F
:102FC00040328261617C826922F48042012908BF1B
:102FD00002F580428261A17C826922F4805201293B
:102FE00018BF02F580528261816921F44073D4E9EF
:102FF00002120B438361836923F0A4038361036995
:1030000023F0100303619AB1012A0DD0022A09D0DE
:103010008369032A43F080038361036943F010024C
:10302000026105D1202200E0042283691A438261F3
:10303000D4E90572E369561E6FF0FF02256A02EBC0
:103040000323B1F5407F43EA4663A5F1010646EA52
:10305000030640F20003CFF6FF7303EB074746EA8F
:103060000701C16110D1D4E90B65D4E90917013F0B
:1030700002EB06226FF00F063A4306EB05173A43C0
:1030800003EB01411143C160236E2BB1616ED0F897
:10309000C0201143C0F8C010E16DCDE90113D94241
:1030A00048F6F861C0F6000109D0D0F8C820A36E38
:1030B00022F0070251F823301A43C0F8C820D4F890
:1030C00040A0BAF1000F09D0D0F8BC20636C22F008
:1030D000070251F823301A43C0F8BC20D4F848C086
:1030E000BCF1000F0AD0D0F8BC20E36C22F07002D3
:1030F00051F8233042EA0312C0F8BC20D4F850B093
:10310000BBF1000F0AD0D0F8BC20636D22F4E0625E
:1031100051F8231042EA0121C0F8BC10404504D107
:1031200061688A6822F003028A600021C4F8941062
:10313000C4F89C10012184F8981004F13409D0F8E7
:1031400084104FF6FC729143656C99E80C0200956F
:1031500041EA8201C0F88410D0F8841021F47F0184
:1031600041EA0341C0F884109918D0F888306FF311
:103170008F0343EA8103C0F88830D0F8883023F405
:10318000FE0343EA0943C0F8883001EB4903D0F855
:10319000A0606FF38F0646EA8306C0F8A060D0F8FF
:1031A000A06026F4FE0646EA0A46C0F8A06005FBC9
:1031B0000A36D0F8B0306FF38F0343EA8603C0F8C5
:1031C000B030D0F8B03023F4FE0343EA0C43C0F82B
:1031D000B030E36CD0F8AC506FF38F0503FB0C6696
:1031E00045EA8605C0F8AC50D4F8548008FB0B655E
:1031F000D0F8F0606FF38F0646EA8506C0F8F060FD
:10320000D0F8F0E0A66D2EF47C1747EA0647C0F828
:10321000F070F70007EB8507D0F8C0506FF38F050B
:103220002F43C0F8C070D0F8C070009D27F47C1701
:1032300005FB0AF5DDF804A003FB0C5347EA0A4737
:10324000C0F8C0704AF20007D0F8C0E0C4F200072E
:10325000DDF808C007F5406707EB820207EB810144
:103260002EF07C5747EA0C67C0F8C07001EBC9002C
:1032700008FB0B372167A16E00EB8505606700EB4B
:103280008303E266C4E91E530AFB01F300EB8700E7
:103290000CFB01F1C4F8800000EBC600C4F8840008
:1032A00000EB8300C4F8880000EB81004DF2FC3194
:1032B000C4F20001C4F89000884201D9202069E6D8
:1032C000824208D2002000BF42F8040BD4F89010CC
:1032D0008A42F9D367E6002003B0BDE8F08F000012
:1032E000B0B5B8B0044602A8C0210025CDE93655D6
:1032F000CDE934553395FDF71AF94AF200412068BB
:10330000C4F2000188423ED04AF20001C4F200013A
:10331000884240F08780002003904FF400400290E4
:103320004FF080501E9002A800F042FC08B1FDF75B
:1033300077FC40F29C0144F2E040C2F20041C5F645
:1033400002000A68002A02F101020A6008D1C1687D
:1033500041F48071C160C16801F4807101910199EB
:103360000168152441F0080101600068132500F090
:1033700008000190019840F20040C5F602000321C8
:1033800000F5006033E04FF4004002904FF08050B1
:103390001E9002A8039500F00BFC08B1FDF740FC5D
:1033A00040F29C0144F2E040C2F20041C5F6020046
:1033B0000A68002A02F101020A6008D1C16841F4DA
:1033C0008071C160C16801F4807101910199016847
:1033D000162441F0020101600068142500F002008B
:1033E0000190019840F200406021C5F6020033913F
:1033F000022134910021CDE935110921379133A9FA
:1034000000F096F805210022284600F031FA2846FF
:1034100000F01EFA05210022204600F029FA20467D
:1034200000F016FA38B0B0BD704700000000000090
:1034300040F2B822C2F20042904230D111F00100B5
:1034400008BF70472DE9F04196B00AAA40F2B820B3
:1034500002F12803C2F200404021FFF701FBD8B976
:103460000A98012818D10DF1340E0DF14408DDE958
:103470000B239EE803508DE8035004A8012198E82F
:10348000700170C040F20010159FC2F20040089712
:10349000CDF81C80FDF7F0F816B0BDE8F04170479C
:1034A000704700000000000090F8981001290CD12E
:1034B000022180F8981001688A6922F001028A616D
:1034C0000021C0F89C1008467047D0F89C1041F0CD
:1034D0000401C0F89C1001207047000000000000AB
:1034E000704700000000000070470000000000006E
:1034F000704700000000000070470000000000005E
:10350000704700000000000070470000000000004D
:10351000704700000000000070470000000000003D
:10352000704700000000000070470000000000002D
:103530002DE9F04F82B00C68002C00F0C58000F13E
:10354000264242F2004502F1FF728305C5F60205EC
:103550000A27A84243EA922208BF0927092A40F213
:10356000040E38BF1746C5F6000E002200974FF034
:10357000030C0026002709E001370C6834FA07F332
:1035800006F1020602F1040200F09E80012303FA14
:1035900007FA14EA0A09EFD0D1F804B00BF00304DB
:1035A000A4F10108B8F1010F11D8D0F808800CFA85
:1035B00006F3CD6828EA0303B5402B438360CBF3C1
:1035C0000015436823EA0A03BD402B434360032CE4
:1035D0001DD0C3680CFA06F5AB438D68B540022CCC
:1035E00043EA0503C36012D16FF0030302F01C0528
:1035F00003EA57030F24034404FA05FAD3F82080A2
:103600000C6928EA0A08AC4044EA08041C62036812
:103610000CFA06F44D68A34305F0030415F4403F8B
:1036200004FA06F443EA04030360A5D044F2F44428
:1036300040F2084AC5F60204C5F6000A0F252368C1
:1036400043F002032360236803F00203019327F091
:103650000303019C02F00C0453F80A80A54028EAF9
:103660000508009D05FA04F444EA080443F80A40FA
:103670004FF0B04ADAF800804C6848EA0905E302E6
:1036800058BF28EA0905A302CAF80050DEF80080F6
:1036900048EA090558BF28EA0905A303CEF80050F7
:1036A000DEF8808048EA090558BF28EA0905E403E6
:1036B000CEF88050DEF87C3043EA090558BF23EA93
:1036C0000905CEF87C5057E702B0BDE8F08F000046
:1036D00041F20000C5F600400068000C7047000091
:1036E00044F2AC50C2F20040006870470000000095
:1036F00040F2140044F2AC51C2F20040C2F2004168
:1037000000780A681044086070470000000000005C
:1037100080B5032000F0DCF801F032F944F21841E2
:1037200048F67473C5F60201C0F600030A68C2F3D6
:1037300003229A5C096801F00F0102F01F02595C34
:10374000D04040F21002C2F2004201F01F0120FA04
:1037500001F1116040F20C01C2F2004108600F203B
:1037600000F00AF800281CBF012080BD00F058F8C6
:10377000002080BD000000000F2847D8B0B58AB0F7
:1037800004461D2000222146002500F071F81D206E
:1037900000F05EF840F21800C2F20040046044F20B
:1037A000E840C5F60200016841F0020101600068CE
:1037B00001A900F002000290029802A801F02CF882
:1037C000079C002C18BF012401F07AF84DF68361A4
:1037D000A040C4F21B3140F20042A0FB010140F2C4
:1037E0005830C2F200404FF0FF33C4F200020260D2
:1037F00003EB9141C0E9011540F2E731C0E903153F
:1038000001F06EFC20B101200AB0B0BD012070476C
:1038100040F25830C2F2004001F096FC0AB0B0BD50
:1038200081B044F2F4400022C5F60200016841F084
:103830000201016000680F2100F0020000906FF0AB
:103840000100009B01B000F013B800000000000070
:10385000002848BF704700F01F01012202FA01F161
:103860004EF200124009CEF2000242F820107047DA
:1038700070B54EF60C5C4FF0FF36CEF2000C00F146
:10388000604505F56445DCF80030C3F3022E8EF088
:103890000703042B28BF0423BEF1030406FA03F335
:1038A00021EA030100F00F0338BF0024043B002885
:1038B000634406FA04F048BF03F10C05A14022EA74
:1038C000000008430001287070BD000000000000E7
:1038D0004EF60C514FF6FF03CEF200010A681A4073
:1038E00060F30A2242F0806040F0FD70086070478B
:1038F000B0B544F60C05C5F60205296849072968E4
:1039000005D401F00701081A18BF0120B0BD21F04D
:10391000070108432860FFF7E3FE044655F8080C4A
:10392000800407D4FFF7DCFE001BB0F57A7FF5D9E1
:103930000120B0BD0020B0BD80B500F099FF44F279
:10394000204148F67472C5F60201C0F6000209680B
:10395000C1F30211515C01F01F01C84080BD00009D
:1039600080B544F2384EC5F6020E5EF8103C5EF8A3
:10397000101C5EF80C2CC1F3053CDEF80410BCF101
:10398000000F15D0C908D20601EAE2716FF35F316A
:1039900000EE101A03F003010229B8EE400A0CD021
:1039A00071B95EF8381C89060DD49FED351A18E000
:1039B00000218160C0E9001180BD9FED301A10E048
:1039C0009FED2D1A0DE05EF8381C49F20002C0F29E
:1039D000D032C1F3C10122FA01F101EE101AB8EEA2
:1039E000411ADEF800109FED273A6FF35F2102EED7
:1039F000101ADEF80010C1F34621B8EE422A00EE9C
:103A0000032A00EE10CAB7EE003AB8EE400A81EE83
:103A1000000A32EE031A02EE101AB8EE422A20EE25
:103A2000010A32EE031A80EE011ABCEEC11A80EDD3
:103A3000001ADEF80010C1F3064101EE101AB8EECC
:103A4000411A31EE031A80EE011ABCEEC11A80ED64
:103A5000011ADEF80010C1F3066101EE101AB8EE8B
:103A6000411A31EE031A80EE010ABCEEC00A10EED4
:103A7000101A816080BD00BF0024744A001B374BC0
:103A80000024744C0000003980B544F2404EC5F665
:103A9000020E5EF8183C5EF8181C5EF8142CC1F398
:103AA000055CDEF80410BCF1000F15D0C908D20582
:103AB00001EAE2716FF35F3100EE101A03F00301C7
:103AC0000229B8EE400A0CD071B95EF8401C890694
:103AD0000DD49FED351A18E000218160C0E9001176
:103AE00080BD9FED301A10E09FED2D1A0DE05EF8BD
:103AF000401C49F20002C0F2D032C1F3C10122FAE7
:103B000001F101EE101AB8EE411ADEF800109FED37
:103B1000273A6FF35F2102EE101ADEF80010C1F3AE
:103B20004621B8EE422A00EE032A00EE10CAB7EE94
:103B3000003AB8EE400A81EE000A32EE031A02EEB5
:103B4000101AB8EE422A20EE010A32EE031A80EE75
:103B5000011ABCEEC11A80ED001ADEF80010C1F3A4
:103B6000064101EE101AB8EE411A31EE031A80EE4A
:103B7000011ABCEEC11A80ED011ADEF80010C1F383
:103B8000066101EE101AB8EE411A31EE031A80EE0A
:103B9000010ABCEEC00A10EE101A816080BD00BFA1
:103BA0000024744A001B374B0024744C0000003979
:103BB0002DE9F04381B00446C07844F22C49000757
:103BC000C5F6020901D400252DE0A06E4FEA305061
:103BD00003280CD80025DFE800F0020D1613D9F8F1
:103BE000000040F40030C9F8000055B913E0012589
:103BF0003DB910E004F10800022102F06DF905461C
:103C00004DB1A84611E004F12800022102F0F4F9B8
:103C10000546002DF5D1D9F82400A16E20F44010FE
:103C20000843C9F824004FF000086078C00730D07E
:103C3000A06D042807D8DFE800F00A131C03030076
:103C4000FDB1A84625E00125002DFAD119E0D9F8EB
:103C5000000040F40030C9F80000002DF1D110E060
:103C600004F10800002102F037F90546002DE8D1E3
:103C700007E004F12800002102F0BEF90546002DFE
:103C8000DFD1D9F82400A16D20F007000843C9F85E
:103C900024006078800732D5E06D4FEAB010042828
:103CA00007D8DFE800F00A131C030300FDB1A846A3
:103CB00025E00125002DFAD119E0D9F8000040F4E3
:103CC0000030C9F80000002DF1D110E004F1080027
:103CD000002102F001F90546002DE8D107E004F1CA
:103CE0002800002102F088F90546002DDFD1D9F81F
:103CF0002400E16D20F4E0700843C9F824006078E6
:103D0000400734D5D4F8A8004FEA7050042807D8EB
:103D1000DFE800F00A131C030300FDB1A84626E00B
:103D20000125002DFAD119E0D9F8000040F4003047
:103D3000C9F80000002DF1D110E004F108000021C5
:103D400002F0CAF80546002DE8D107E004F128008A
:103D5000002102F051F90546002DDFD1D9F82C00E1
:103D6000D4F8A81020F460000843C9F82C0060784B
:103D7000000734D5D4F8AC004FEA3060042807D8E7
:103D8000DFE800F00A131C030300FDB1A84626E09B
:103D90000125002DFAD119E0D9F8000040F40030D7
:103DA000C9F80000002DF1D110E004F10800002155
:103DB00002F092F80546002DE8D107E004F1280052
:103DC000002102F019F90546002DDFD1D9F82C00A9
:103DD000D4F8AC1020F0E0600843C9F82C00E0787B
:103DE000800728D5E06C4FEA3010032806D8DFE8BA
:103DF00000F002091202B5B1A8461CE00125002D11
:103E0000FAD110E0D9F8000040F40030C9F8000001
:103E1000002DF1D107E004F10800022102F05CF866
:103E20000546002DE8D1D9F82000E16C20F03000E3
:103E30000843C9F820006078C00632D5206E4FEAEA
:103E40003030042807D8DFE800F00A131C03030011
:103E5000FDB1A84625E00125002DFAD119E0D9F8D9
:103E6000000040F40030C9F80000002DF1D110E04E
:103E700004F10800002102F02FF80546002DE8D1DA
:103E800007E004F12800002102F0B6F80546002DF5
:103E9000DFD1D9F82400216E20F4E0400843C9F8AE
:103EA00024006078800626D5606E4FEA30400528F1
:103EB00007D8DFE800F0030A100303039DB1A8460A
:103EC00019E00125002DFAD10DE004F108000121CF
:103ED00002F002F804E004F12800012102F08CF85D
:103EE0000546002DEBD1D9F82400616E20F4E020C6
:103EF0000843C9F824006078400628D5D4F8B000FB
:103F00004FEA3070052807D8DFE800F0030A1003F5
:103F100003039DB1A8461AE00125002DFAD10DE05A
:103F200004F10800012101F0D7FF04E004F12800AA
:103F3000012102F061F80546002DEBD1D9F82C00E3
:103F4000D4F8B01020F0E0400843C9F82C006078A5
:103F5000000620D5206FD8B1B0F1005F12D0B0F1CB
:103F6000805F25D1D9F8000040F40030C9F8000086
:103F700085B9D9F82400216F20F040500843C9F8D2
:103F8000240008E004F10800012101F0A5FF054626
:103F9000002DEED0A846E078C0072AD0A06C0328F8
:103FA0000AD8DFE800F0020D1602D5B1A84620E0DD
:103FB0000125002DEED1DCE70125002DF6D110E022
:103FC000D9F8000040F40030C9F80000002DEDD110
:103FD00007E004F10800022101F07EFF0546002DF4
:103FE000E4D1D9F82000A16C20F003000843C9F8FF
:103FF0002000A078400643D5D9F8D40340F480705F
:10400000C9F8D403FFF76CFB064600BFD9F8D40308
:10401000C00505D4FFF764FB801B6528F6D3032594
:104020006DBBD9F84410D4F8B400414011F4407F7E
:1040300011D0D9F84410D9F8442042F48032C9F89C
:104040004420D9F8442021F4407122F48032C9F888
:104050004420C9F84410B0F5807F0FD1FFF740FB32
:10406000064641F2893700BFD9F84400800705D4DD
:10407000FFF736FB801BB842F6D3032585B1A8466F
:104080002078C00742D0E06F4FEAF000052823D81F
:10409000DFE800F003262C0303037DB3A84635E0D8
:1040A0004FF6CF73D4F8B40059F81C2CC0F2FF03BC
:1040B00000F4407122F47C5203EA1013B1F5407F02
:1040C00008BF1A436FF31F3049F81C2CD9F844106D
:1040D0000843C9F84400D3E70125002DDED10DE0E7
:1040E00004F10800012101F0F7FE04E004F12800CA
:1040F000012101F081FF0546002DCFD1D9F828001C
:10410000E16F20F038000843C9F8280020788007C4
:1041100024D5A06F052807D8DFE800F0030A1003B4
:1041200003039DB1A84619E00125002DFAD10DE049
:1041300004F10800012101F0CFFE04E004F12800A1
:10414000012101F059FF0546002DEBD1D9F82800D7
:10415000A16F20F007000843C9F828002078400725
:1041600026D5D4F89400052807D8DFE800F0030A24
:10417000100303039DB1A8461AE00125002DFAD1D2
:104180000DE004F10800012101F0A6FE04E004F1B5
:104190002800012101F030FF0546002DEBD1D9F8B0
:1041A0002C00D4F8941020F007000843C9F82C0024
:1041B0002078800628D5D4F890004FEA3070052882
:1041C00007D8DFE800F0030A100303039DB1A846F7
:1041D0001AE00125002DFAD10DE004F108000021BC
:1041E00001F07AFE04E004F12800022101F004FF4E
:1041F0000546002DEBD1D9F82800D4F8901020F016
:10420000E0400843C9F828002078400628D5D4F8B3
:104210009C004FEAB020052807D8DFE800F0030A29
:10422000100303039DB1A8461AE00125002DFAD121
:104230000DE004F10800002101F04EFE04E004F15D
:104240002800022101F0D8FE0546002DEBD1D9F857
:104250002C00D4F89C1020F4E0500843C9F82C003E
:104260002078000628D5D4F8A0004FEA7030052841
:1042700007D8DFE800F0030A100303039DB1A84646
:104280001AE00125002DFAD10DE004F1080000210B
:1042900001F022FE04E004F12800022101F0ACFE4E
:1042A0000546002DEBD1D9F82C00D4F8A01020F44D
:1042B00060400843C9F82C002078000716D5D4F8D0
:1042C0008400B0F5805F08D104F12800022101F0DC
:1042D00093FE002818BF4FF00108D9F82800D4F841
:1042E000841020F440500843C9F828002078C00604
:1042F00016D5D4F89800B0F5807F08D104F12800D5
:10430000022101F079FE002818BF4FF00108D9F80A
:104310002C00D4F8981020F440700843C9F82C0001
:10432000A078000722D5D4F8A400B0F5003F1AD039
:10433000B0F5803F11D0C8BB04F10800002101F0A6
:10434000CBFD05468DB9D9F82C00D4F8A41020F483
:1043500040300843C9F82C0008E004F1280002218D
:1043600001F04AFE0546002DEDD0A846A078400792
:1043700029D5D4F88800B0F5401F21D0B0F5001F32
:1043800018D0B0F5801F40F0BE80D9F8000040F48E
:104390000030C9F80000ADB9D9F82800D4F8881069
:1043A00020F440100843C9F828000CE00125002D36
:1043B000DBD1C8E704F12800012101F01DFE05460C
:1043C000002DE9D0A846A078C00720D0206DB0F518
:1043D000803F10D0B8B9D9F8000040F40030C9F8D7
:1043E00000009DB9D9F82000216D20F480300843E9
:1043F000C9F820000BE004F10800022101F06CFD77
:1044000005461DB9EEE70125002DEBD0A846E07862
:10441000800608D504F12800022101F0EDFD0028F6
:1044200018BF4FF00108D4E900108A037AD5D4F8F8
:1044300080206FF0010303EB3223022B0AD34FEAF3
:1044400032233BB1012B63D1D9F8003043F4003360
:10445000C9F80030002D5ED0CA0266D4CA006ED4FE
:104460008A0278D44A0000F18180CA0F40F08E8021
:10447000090200F19680C00707D004F1080000216E
:1044800001F02AFD002818BF05462079800707D5CE
:1044900004F10800012101F01FFD002818BF0546A6
:1044A0002079400707D504F10800022101F014FD2E
:1044B000002818BF05462079000707D504F1280019
:1044C000002101F099FD002818BF05462079C0069B
:1044D00007D504F12800012101F08EFD002818BF46
:1044E00005462079800607D504F12800022101F055
:1044F00083FD002818BF0125002D18BF012528467F
:1045000001B0BDE8F0830125002D7FF45BAF43E7E8
:104510000125002DA0D1D9F8283023F440731A4387
:10452000C9F828204546CA0298D5D9F82420636FD7
:1045300022F000421A43C9F82420CA0090D559F845
:104540001C2CD4F8B83022F480421A4349F81C2CB1
:104550008A027FF587AFD9F82420E36E22F08072BB
:104560001A43C9F824204A007FF57FAF59F81C2C64
:1045700022F4004249F81C2CD4F8BC2059F81C3C09
:104580001A4349F81C2CCA0F3FF472AFD9F8202007
:10459000636D22F040521A43C9F8202009027FF5CA
:1045A0006AAFD9F82810D4F88C2021F440011143C7
:1045B000C9F82810C0077FF460AF66E7000000006C
:1045C0002DE9F04381B0002800F0F68042F20008A7
:1045D0000446C5F200288946D8F8000000F00F0014
:1045E00088420ED2D8F8000020F00F0040EA0900FF
:1045F000C8F80000D8F8000000F00F00484540F06F
:10460000DB80206844F218474107C5F602070AD547
:1046100021693A6802F07002914204D93A6822F0A6
:1046200070021143396001070AD561697A6802F0A6
:104630007002914204D97A6822F0700211437960C5
:10464000C1060AD5A1697A6802F4E062914204D9F0
:104650007A6822F4E0621143796081060AD5E16943
:10466000BA6802F07002914204D9BA6822F070026E
:104670001143B96081070AD5E1683A6802F00F0278
:10468000914204D93A6822F00F0211433960C00701
:1046900040F08080206881070AD5E1683A6802F01E
:1046A0000F02914204D23A6822F00F02114339609E
:1046B000D8F8001001F00F0149450DD9D8F80010C5
:1046C00021F00F0141EA0901C8F80010D8F80010E4
:1046D00001F00F0149456FD141070AD521693A68B8
:1046E00002F07002914204D23A6822F07002114343
:1046F000396001070AD561697A6802F07002914257
:1047000004D27A6822F0700211437960C1060AD59A
:10471000A1697A6802F4E062914204D27A6822F4D4
:10472000E0621143796080060AD5E069B96801F05A
:104730007001884204D2B96821F070010843B86062
:1047400000F01EF9396848F67472C0F60002C1F331
:104750000321515C3B6803F00F0301F01F01D25CA1
:1047600020FA01F102F01F0040F21002C2F20042F2
:1047700021FA00F0106040F2180040F20C02C2F280
:104780000040C2F200420068116001B0BDE8F04391
:10479000FEF7F2BF3968D4E9010221F47061012803
:1047A00041EA020139600BD003282BD002282ED118
:1047B00057F8181C890307D4012001B0BDE8F08325
:1047C00057F8181CC905F7D557F8081C21F0070140
:1047D000084347F8080CFEF783FF064641F2883588
:1047E00057F8080C616800F03800B0EBC10F3FF4D7
:1047F00051AFFEF775FF801BA842F1D9032001B02D
:10480000BDE8F08357F8181C8901D5D5DCE757F8C7
:10481000181C4907D0D5D7E73F22026044F218425E
:10482000C5F6020252F8083C03F007034360136820
:1048300003F470638360136803F00F03C3601368AD
:1048400003F070030361536803F07003436153681E
:1048500003F4E0638361926802F07002C26142F285
:104860000000C5F20020006800F00F0008607047EB
:1048700080B500F085F844F2184148F67473C5F627
:104880000201C0F600030A68C2F303229A5C0968B9
:1048900001F00F0102F01F02595C20FA02F201F050
:1048A0001F0040F21001C2F2004122FA00F008603D
:1048B00040F20C01C2F200410A6080BD000000001D
:1048C00080B500F05DF844F2184C48F67473C5F6F4
:1048D000020CC0F60003DCF80020C2F303229A5C4D
:1048E000DCF8001001F00F0102F01F02595CD0400B
:1048F00040F21002C2F2004201F01F0120FA01F161
:10490000116040F20C02C2F200421060DCF80400B8
:10491000C0F30210185C00F01F0021FA00F080BD07
:1049200080B500F02DF844F2184C48F67473C5F6C3
:10493000020CC0F60003DCF80020C2F303229A5CEC
:10494000DCF8001001F00F0102F01F02595CD040AA
:1049500040F21002C2F2004201F01F0120FA01F100
:10496000116040F20C02C2F200421060DCF8040058
:10497000C0F30220185C00F01F0021FA00F080BD97
:1049800044F20041C5F602010869C0F3C2000328E1
:104990000FD002282CD080BB0868800649F20000A6
:1049A000C0F2D03058BF70470968C1F3C101C84098
:1049B00070478A6A886AC0F3051CC86ABCF1000F98
:1049C0004B6B1FD000F0010002F003024042022AAC
:1049D00000EAD3006FF35F3000EE100AB8EE400A31
:1049E00012D0A2B90868800614D49FED261A1EE0E2
:1049F00041F60030C0F2B700704740F60010C0F238
:104A00003D007047002070479FED1D1A0FE09FED9D
:104A10001B1A0CE0086849F20002C0F2D032C0F361
:104A2000C10022FA00F001EE100AB8EE411A086B3C
:104A30009FED153A6FF35F2002EE100A086BC0F38A
:104A40004620B8EE422A013000EE032A00EE10CADA
:104A5000B7EE003AB8EE400A81EE000A32EE031AD1
:104A600020EE010A01EE100AB8EE411A80EE010AAA
:104A7000BCEEC00A10EE100A704700BF0024744A52
:104A8000001B374B0024744C00000039000000006C
:104A90002DE9F04381B0002800F0C98180460078FC
:104AA00044F20049C007C5F6020956D0D9F81000F3
:104AB00000F03801D9F82800102905D018290CD1A8
:104AC00000F00300022808D1D9F80000800340D587
:104AD000D8F80400E8BB01272EE0D8F804402CB138
:104AE000B4F5A02F0DD0B4F5803F10D0D9F8000058
:104AF00020F48030C9F80000D9F8000020F48020AC
:104B000009E0D9F8000040F48020C9F80000D9F885
:104B1000000040F48030C9F80000FEF7E1FD0546D2
:104B20009CB100BFD9F80000800312D4FEF7D8FD75
:104B3000401B6428F6D90327002070B9BCE100BFF0
:104B4000FEF7CEFD401B6428F5D8D9F8000080039D
:104B5000F6D40120002800F0AF8198F8000080070B
:104B600040F18080D9F8100010F03801D9F8280001
:104B70001CD0182908BF5FEA807017D0D8F80C0045
:104B8000D9F80010002845D021F019010843C9F8D0
:104B90000000FEF7A5FD0546D9F80000400728D41F
:104BA000FEF79EFD401B0228F6D91EE0D9F8000052
:104BB000400704D5D8F80C00002800F0DC81D9F8B3
:104BC0000000D8F80C1020F019000843C9F80000C4
:104BD000FEF786FD054600BFD9F80000400708D45F
:104BE000FEF77EFD401B0228F6D903270024CCBB2C
:104BF00062E1FEF76DFD41F20301884221D8D8F849
:104C00001000D9F80410402821F47C3122D141F45D
:104C1000003021E021F00100C9F80000FEF760FD3E
:104C200005460126D9F8000010F0040086EA900439
:104C300015D0FEF755FD401B0228F3D903278CB988
:104C40003AE1D9F80400D8F8101020F0FE4040EA0C
:104C5000016001E041EA00300124C9F80400002CA1
:104C600000F02A8198F80000C00670D5D9F810002D
:104C700000F03801D9F82800082905D018291CD1DE
:104C800000F00300012818D1D9F80000C00503D5B1
:104C9000D8F81C00802855D1FEF71AFD41F2030117
:104CA000884222D8D8F82000D9F80410202821F012
:104CB000F8413ED141F080403DE0D8F81C0000288A
:104CC000D9F800001ED040F08000C9F80000FEF7BF
:104CD00007FD0546D9F80000C005DDD4FEF700FD4C
:104CE000401B0228F6D903272DE0D9F80C00D8F88C
:104CF000201020F07C50012440EA0160C9F80C002B
:104D00002CBBD9E020F08000C9F80000FEF7E8FCD9
:104D100005460126D9F8000010F4807086EA1024B8
:104D20000CD0FEF7DDFC401B0328F3D3032774B936
:104D3000C2E041EA8060C9F804000124002C00F0C0
:104D4000BB8004E001270024002C00F0B58098F817
:104D5000000000076DD498F80000800600F1818003
:104D600098F80000400700F19480D8F82440002C07
:104D70005BD0D9F8100000F03800182840F0D98036
:104D8000012CD9F82810D9F8300050D001F00302D6
:104D9000D8F828309A424AD1C1F30511D8F82C200E
:104DA000914244D10146D8F830206FF35F21013A97
:104DB00091423CD1C0F34622D8F8341001398A42DE
:104DC00035D1C0F30642D8F8381001398A422ED1C5
:104DD000C0F30660D8F83C100139884227D1D9F8D1
:104DE0003400D8F84810C0F3CC0081421DD0D9F867
:104DF0002C0020F00100C9F82C00FEF771FC0546DC
:104E0000FEF76EFCA842FBD0D9F834004FF6F871DB
:104E1000D8F84820884340EAC200C9F83400D9F8DD
:104E20002C0040F00100C9F82C00002744E00127C5
:104E300042E0D8F814000028D9F8740040D040F0BF
:104E40000100C9F87400FEF74BFC0546D9F8740060
:104E500080073FF580AFFEF743FC401B0228F5D9E1
:104E600029E0D8F818000028D9F800004DD040F407
:104E70008050C9F80000FEF733FC0546D9F8000061
:104E800080043FF56DAFFEF72BFC401B0228F5D9DF
:104E900011E0D9F8000440F48070C9F80004FEF76E
:104EA0001FFC0546D9F80004C0051CD4FEF718FC09
:104EB000401B6428F6D90327F8B201B0BDE8F0839F
:104EC00020F00100C9F87400FEF70AFC054603272C
:104ED000D9F8740080077FF53EAFFEF701FC401B58
:104EE0000228F5D9E8E7D8F808401CB1052C44D0D1
:104EF000012C48D0D9F8700020F00100C9F87000EA
:104F0000D9F8700020F0040041E020F48050C9F886
:104F10000000FEF7E5FB0546032700BFD9F80000B7
:104F200080047FF51DAFFEF7DBFB401B0228F5D99F
:104F3000C2E7D9F8000020F08070C9F80000FEF741
:104F4000CFFB022C05464FF0030709D1D9F800002A
:104F500080013ED5FEF7C4FB401B0228F6D9ABE723
:104F6000D9F8000080017FF560AFFEF7B9FB401B68
:104F70000228F5D9A0E7012738E6D9F8700040F0FB
:104F80000400C9F87000D9F8700040F00100C9F8B9
:104F90007000FEF7A5FB002C054641F288344FF067
:104FA000030711D0D9F8700080073FF5DEAEFEF799
:104FB00097FB401BA042F5D97EE700BFFEF790FBB0
:104FC000401BA0423FF678AFD9F870008007F5D4B7
:104FD000CBE608F12807D9F8280040F2F3318843DE
:104FE0008ECF0843591E40EA02104FF47E426FF301
:104FF0005F21C9F8280002EB47204FF4FE0280B27F
:10500000D8F83C300844D8F8381002EB01414FF092
:10501000FE4201F4FE0102EB0362084402F0FE418D
:105020000844C9F83000D9F82C004FF6F87120F088
:105030000100C9F82C00D9F83400D8F8482088437A
:1050400040EAC200C9F83400D9F82C00D8F8401062
:1050500020F00C000843C9F82C00D9F82C00D8F82F
:10506000441020F002000843C9F82C00D9F82C00A5
:1050700040F48030C9F82C00D9F82C0040F40030FE
:10508000C9F82C00D9F82C0040F48020C9F82C0075
:10509000D9F82C0040F00100C9F82C00D9F8000024
:1050A00040F08070C9F80000FEF71AFB04460327A1
:1050B000D9F8000080013FF5B8AEFEF711FB001BE8
:1050C0000228F5D9F8E60000704700000000000053
:1050D0007047000000000000704700000000000062
:1050E00060B310B5044690F83D0028B9002084F85C
:1050F0003C00204600F024F8022084F83D0020689F
:10510000211D01F0FDF9012084F8480084F83E00DB
:1051100084F83F0084F8400084F8410084F842009D
:1051200084F8430084F8440084F8450084F846007D
:1051300084F8470084F83D00002010BD012070472E
:10514000704700000000000090F83D1001291BD1BD
:10515000022180F83D10016841F2FF70C4F20000A6
:105160008142C86840F00100C8600FDC40F2FF7067
:10517000C4F20000814217DCB1F1804F2BD040F225
:105180000040C4F2000024E00120704740F2FF30EC
:10519000C4F20100814212DC41F60000C4F20000BA
:1051A000814218D0002012E040F60000C4F2000056
:1051B000814210D040F60040C4F2000009E044F201
:1051C0000000C4F20100814205D040F20040C4F268
:1051D000010081420BD107228868C0F2010202401F
:1051E0000020062A18BFB2F5803F00D1704708683A
:1051F00040F001000860002070470000000000003F
:105200007047000000000000F0B581B0044600685F
:10521000C5680669B10716D515F0020113D06FF005
:1052200002010161012121778069800703D02046B6
:10523000FFF7E6FF05E0204600F09AF8204600F070
:105240009BF800202077700718D515F0040015D0C2
:1052500020686FF00401016102212177806910F458
:10526000407F03D02046FFF7CBFF05E0204600F04B
:105270007FF8204600F080F800202077300717D50F
:1052800015F0080014D020686FF0080101610421B6
:105290002177C069800703D02046FFF7B1FF05E002
:1052A000204600F065F8204600F066F800202077E0
:1052B000F00618D515F0100015D020686FF0100119
:1052C000016108212177C06910F4407F03D0204696
:1052D000FFF796FF05E0204600F04AF8204600F070
:1052E0004BF800202077F00718BF15F0010006D01A
:1052F00020686FF001010161204600F041F805F0DF
:10530000800716F4025F18BF002F02D1F00509D400
:1053100010E020686FF4025101612046FFF7D8FECB
:10532000F00507D537B120686FF480710161204620
:10533000FFF7CAFE700609D515F0400006D02068B8
:105340006FF040010161204600F026F8B0060CD550
:1053500015F0200009D020686FF02001016120467F
:1053600001B0BDE8F040FFF7B7BE01B0F0BD0000EE
:1053700070470000000000007047000000000000BF
:1053800040F200410068C4F20001884218BF704733
:10539000FEF7AEB9000000007047000000000000FA
:1053A00090F88410012901D1022070472421C0F80F
:1053B000881002681368116823F0005321F001017E
:1053C00011600021416613602022C0F8882080F817
:1053D000841008467047000010B50446D0F88C00D1
:1053E000202805D10120002918BF002A02D110BDB4
:1053F000022010BDE06600202067204601F0DCFCA2
:10540000002818BF10BDE16E01290ED121681022BD
:105410000A6200BF216851E8001F226841F01001B4
:1054200042E80013002BF5D1E1E7012010BD000098
:1054300044F200410068C4F20001884218BF70477E
:1054400080B540F2CC0040F2E601C2F20040C2F268
:1054500000411922FBF71EF8FBF742F90128BDE8CD
:10546000804011D140F2E50C40F2A430C2F2004C71
:1054700040F2E601C2F20040C2F2004119220123CB
:105480008CF80030FFF7A8BF704700000000000054
:10549000704700000000000090F88420012A01D12C
:1054A00002207047B0B5012380F884302422C0F870
:1054B00088200268D0F864E0BEF1000FD2F800C086
:1054C000146824F001041460946824F0606441EAD4
:1054D000040191601BD0916848F6D07E9368C0F6B5
:1054E000000E5B0F48F6D875C1F34261C0F60005A7
:1054F0001EF80340EB5C2401B4FBF3F3A0F86A3020
:105500001EF80130695C1B01B3FBF1F301E0A0F868
:105510006A30A0F868302021C2F800C0C0F88810B6
:10552000002180F88410BDE8B040084670470000B4
:1055300090F88420012A01D102207047B0B50123E0
:1055400080F884302422C0F888200268D0F864E013
:10555000BEF1000FD2F800C0146824F001041460FA
:10556000946824F0604441EA040191601BD0916882
:1055700048F6D07E9368C0F6000E5B0F48F6D875EB
:10558000C1F34261C0F600051EF80340EB5C240144
:10559000B4FBF3F3A0F86A301EF80130695C1B011C
:1055A000B3FBF1F301E0A0F86A30A0F868302021E5
:1055B000C2F800C0C0F88810002180F88410BDE84F
:1055C000B04008467047000070470000000000002F
:1055D000704700000000000070470000000000005D
:1055E00070B50368044640F62F00D96908402028AA
:1055F00018689E6805D100F0200206F08055521907
:105600003AD140F60F020A400DD0012240F2201597
:10561000C1F20002C0F2004506EA020C00EA0502EF
:1056200012EB0C022FD1CA06E26E16D5012A14D154
:1056300010F0100211D0102018629868400600F196
:10564000D580B4F85C00B4F85E10B4F85E20002A8F
:1056500018BF884240F02D8170BDCA0240F1E3803E
:1056600016F4800200F0DF804FF4801018622046AC
:10567000BDE87040FFF7ACBF616F0029ECD0204659
:10568000BDE870400847CA0718BF10F4807207D001
:1056900001221A62D4F8902042F00102C4F890204E
:1056A0008A0706F0010E0AD5BEF1000F07D00222CC
:1056B0001A62D4F8902042F00402C4F890204A07FD
:1056C0000AD5BEF1000F07D004221A62D4F8902048
:1056D00042F00202C4F890200A070CD500F0200224
:1056E00052EA0C0207D008221A62D4F8902042F045
:1056F0000802C4F890200A050BD510F0806208D08B
:105700004FF400621A62D4F8902042F02002C4F8EC
:105710009020D4F89020002A9ED0890609D500F068
:10572000200006F08051401803D0616F09B1204677
:1057300088472068D4F89010806801F0280100F0B4
:105740004000401806D12046FFF746FF0020C4F86D
:10575000900070BD206850E8000F216820F4907020
:1057600041E80002002AF5D14FF6FE70CEF6FF7038
:10577000216851E8021F2268014042E80213002B11
:10578000F6D1E06E012809D1206850E8000F2168A9
:1057900020F0100041E80002002AF5D12020C4F8D2
:1057A0008C000020E066216860678868400671D53B
:1057B000206850E8020F216820F0400041E8020212
:1057C000002AF5D1D4F88000002863D046F2E971B0
:1057D000C0F600010165FBF703FD00283FF43CAF74
:1057E000D4F88000016DBDE870400847D4F880000F
:1057F00040F20F42C4F202020168914234DC6F228F
:10580000C4F20202914200F381803F22C4F20202FC
:10581000914200F3A7801022C4F20202914200F0EC
:10582000C3802822BDE00A0605D500F0800206F4F8
:105830000003D21876D14A0631D510F040022ED09E
:10584000206850E8000F216820F0400041E8000285
:10585000002AF5D12020C4F888000020A067204647
:10586000BDE8704000F0B8B940F26F42C4F20202E5
:1058700091425CDC40F23F42C4F20202914278DC89
:1058800040F21042C4F20202914200F08D8040F2D8
:10589000284286E02046BDE87040FFF79DBE0A0220
:1058A00054D510F0804251D02046BDE87040FFF73B
:1058B0008BBE401A216851E8001F226821F49071C4
:1058C00042E80013002BF5D14FF6FE71CEF6FF71C2
:1058D000226852E8022F23680A4043E80226002E7D
:1058E000F6D12021C4F88C100021E166616700BF69
:1058F000216851E8001F226821F0100142E80013DE
:10590000002BF5D181B20220206797E09F22C4F2DC
:105910000202914236DC7022C4F20202914243D06C
:1059200088223EE0A16F00297FF4A9AE94E640F200
:105930009F42C4F2020291422BDC40F27042C4F258
:105940000202914230D040F288422AE0C9017FF53C
:1059500083AEB0F1FF3FC8BF70BD2046BDE87040C8
:10596000FFF796BD4022C4F2020291421CD0582299
:1059700017E040F24042C4F20202914214D040F2D9
:1059800058420EE0A022C4F2020291420CD0B8228A
:1059900007E040F2B842C4F20202914204D040F261
:1059A000A042C4F20202914249688AB2002A3FF43E
:1059B00053AEB4F85C309A42BFF44EAEA4F85E1019
:1059C000C069B0F5807F31D0206850E8000F2168B1
:1059D00020F4807041E80002002AF5D1206850E8E8
:1059E000020F216820F0010041E80202002AF5D1EF
:1059F000206850E8020F216820F0400041E80202D0
:105A0000002AF5D12020C4F88C000020E06600BFF9
:105A1000206850E8000F216820F0100041E80002E3
:105A2000002AF5D1D4F88000FBF762F90220206744
:105A3000B4F85C00B4F85E10401A81B22046BDE8AC
:105A40007040FFF7F5BC000010B5D8B10446D0F89F
:105A5000880028B9002084F88400204600F028F847
:105A60002420C4F888002068A16A0268002922F076
:105A70000101016002D0204600F0EAFD204600F05E
:105A800073FF08B1012010BD2068416821F49041E6
:105A90004160816821F02A018160016841F00101C3
:105AA00001602046BDE8104000F042BE000000004A
:105AB0002DE9F041B8B0044602A8C0210026CDE986
:105AC0003666CDE934663396FAF731FD44F200418B
:105AD0002068C4F20001884202D038B0BDE8F081ED
