:020000040800F2
:10000000286A0024C1030008197D0008F96F000860
:10001000117D0008110A0008699100080000000025
:1000200000000000000000000000000091810008B6
:100030002911000800000000217D000861830008EC
:10004000DB030008DB030008DB030008DB03000818
:10005000DB030008DB030008DB030008DB03000808
:10006000DB030008DB030008DB030008DB030008F8
:10007000510A0008610A0008710A0008810A000894
:10008000DB030008DB030008DB0300084111000864
:1000900051110008DB030008DB030008DB03000844
:1000A000DB030008DB030008DB030008DB030008B8
:1000B000E9840008DB030008DB030008DB03000819
:1000C000DB030008DB030008DB030008DB03000898
:1000D000DB030008DB030008099100081991000800
:1000E000DB030008DB03000800000000DB0300085E
:1000F000DB030008DB030008DB030008DB03000868
:10010000DB030008DB030008DB030008DB03000857
:10011000DB030008DB030008DB030008DB03000847
:10012000DB030008910A0008A10A0008DB030008AD
:10013000DB030008DB030008DB030008DB03000827
:1001400000000000000000000000000000000000AF
:10015000DB030008DB030008DB030008DB03000807
:10016000DB030008DB030008DB030008DB030008F7
:10017000DB030008DB030008DB03000800000000CD
:10018000DB030008DB03000851870008DB030008DD
:10019000DB030008DB030008DB030008DB030008C7
:1001A000DB030008DB030008DB030008000000009D
:1001B000DB030008DB030008DB030008DB030008A7
:1001C000DB030008DB030008000000000000000063
:1001D0000000000000000000DB0300080000000039
:1001E000000000000000000000000000000000000F
:1001F0000000000000000000DB030008DB03000833
:10020000DB030008DB03000800000000DB0300083C
:10021000DB030008DB030008DB030008DB03000846
:10022000DB03000800000000DB0300080000000002
:10023000DB030008DB03000800000000DB0300080C
:10024000DB030008DB030008DB030008DB03000816
:10025000DB030008DB030008DB030008DB03000806
:10026000DB030008DB030008DB030008DB030008F6
:10027000DB030008DB030008DB03000800000000CC
:10028000DB030008DB030008DB030008DB030008D6
:1002900000000000DB030008DB0300080000000092
:1002A00000000000DB030008DB030008DB0300089C
:1002B000DB030008DB030008DB030008DB030008A6
:1002C000DB030008DB030008DB03000800F002F892
:1002D00000F066F814A696E8000CB244B344DA4580
:1002E00001D100F05DF8BAE80F000FA696E83000E3
:1002F000A5EB040504EB0607AAEB0704A7F1010729
:100300004FEA15154FEA3414A4F10104AC4201D3AD
:1003100000F046F813F0010F18BFFB1A43F0010379
:1003200000F001F8DBE71847B4EC0000E4EC000053
:100330000A4410F8014B14F00F0508BF10F8015BD8
:10034000240908BF10F8014B6D1E05D010F8013BC1
:100350006D1E01F8013BF9D1641E03D0641E01F843
:10036000015BFBD19142E4D370470000704700006D
:100370000023002400250026103A28BF78C1FBD8AE
:10038000520728BF30C148BF0B6070471FB50EF041
:10039000F5F89DE8030000F0C1F91FBD10B510BDD0
:1003A00000F04EFA1146FFF7F1FF0BF069FE00F086
:1003B0006CFA03B4FFF7F2FF03BC00F09DFA0000F3
:1003C0000948804709480047FEE7FEE7FEE7FEE7E9
:1003D000FEE7FEE7FEE7FEE7FEE7FEE70448054925
:1003E000054A064B7047000039840008CD0200081A
:1003F00000000020286A0024000002202862002457
:1004000070B5064600F06EF9056806F10B0020F0A5
:100410000704B4429CBF002070BD2B466A68BAB185
:100420001068A04210D304F1080188423CBF506814
:10043000586007D35168101941601168091B0160A9
:1004400058601460101D70BD13465268002AE7D131
:100450002146284600F04EF90028DED170BD53EA4F
:10046000020C00F069802DE9F04B4FF00006002BE4
:100470001FBFB3FA83F503FA05F424FA05F65E40CC
:1004800012BF1643B2FA82F502FA05F4C5F120054F
:100490001EBF22FA05FC44EA0C04203556EA044C3F
:1004A0004FEA144418BF641C4FF000084FF00009D5
:1004B000904271EB030C39D3002919BFB1FA81F7CF
:1004C00001FA07F6B0FA80F700FA07F6C7F120073D
:1004D0001EBF20FA07FC46EA0C062037B6FBF4FCE8
:1004E000A7EB0507103F07F01F0BCBF120062CFAF6
:1004F00006F60CFA0BFB44BFB3460026202FA4BF20
:100500005E464FF0000B5BEA060C08BF4FF0010B94
:1005100019EB0B0948EB0608ABFB027C06FB02CC8F
:100520000BFB03CCC01B71EB0C01C1E70B46024671
:1005300041464846BDE8F08B13B5084318BF4FF05D
:10054000FF300146AFF30080BDE81C407047032A2E
:1005500040F2308010F0030C00F0158011F8013BE0
:10056000BCF1020F624498BF11F801CB00F8013BC7
:1005700038BF11F8013BA2F1040298BF00F801CB8B
:1005800038BF00F8013B11F0030300F02580083A62
:10059000C0F0088051F8043B083A51F804CBA0E8B9
:1005A0000810F5E7121D5CBF51F8043B40F8043B0E
:1005B000AFF30080D20724BF11F8013B11F801CB43
:1005C00048BF11F8012B24BF00F8013B00F801CB14
:1005D00048BF00F8012B704710B5203AC0F00B80DF
:1005E000B1E81850A0E81850B1E81850A0E8185029
:1005F000203ABFF4F5AF5FEA027C24BFB1E818509F
:10060000A0E8185044BF18C918C0BDE810405FEA00
:10061000827C24BF51F8043B40F8043B08BF70477C
:10062000D20728BF31F8023B48BF11F8012B28BF81
:1006300020F8023B48BF00F8012B704702F0FF038F
:1006400043EA032242EA024200F024B84FF00002DB
:100650000429C0F0128010F0030C00F01B80CCF1D4
:10066000040CBCF1020F18BF00F8012BA8BF20F842
:10067000022BA1EB0C0100F00DB85FEAC17C24BF96
:1006800000F8012B00F8012B48BF00F8012B704740
:100690004FF0000200B5134694469646203922BF1B
:1006A000A0E80C50A0E80C50B1F12001BFF4F7AF66
:1006B000090728BFA0E80C5048BF0CC05DF804EB48
:1006C000890028BF40F8042B08BF704748BF20F8B6
:1006D000022B11F0804F18BF00F8012B70477047B4
:1006E0007047704700487047B00D0024704770474E
:1006F0007047704738B504460A4600206946AFF394
:100700000080002808BF38BD02460099204600F04E
:1007100075F8012038BD012000F08AB8F8B5AFF3B4
:100720000080054600200C460C2000BF0646A81994
:10073000A0420DD9324669460020AFF30080070081
:1007400008BF00F075F80098A04218BF0546C4190C
:10075000FFF7C8FF05600746F01D20F007004619A7
:10076000284600F00AF8B44208BFF8BDA21B314683
:100770003868BDE8F84000F041B8002101604160F0
:1007800070470C20704770B50446051FFFF7AAFF9D
:100790000068002C14BF446870BD002C18BFAC4228
:1007A0003CBF20466468F8D301680A18AA4218BF03
:1007B000456003D12A680546114401602868411943
:1007C000A1421CBF6C6070BD61686960216808440B
:1007D000286070BD10B500F00DF8006810BD10B5B0
:1007E000044600F007F8046010BD000000487047A0
:1007F000A80D002400487047A80D00240346406857
:100800008C46002818BF88423CBF03464068F8D396
:1008100018681844884207D00CF1030020F0070044
:10082000001D411A521A0146081D0A60FFF7ABBFAE
:1008300010B500F039F8BDE8104000F02FB870474F
:100840007546FFF7D3FFAE4605006946534620F0D4
:100850000700854618B020B5FFF7C0FDBDE8204071
:100860004FF000064FF000074FF000084FF0000B6C
:10087000AC46ACE8C009ACE8C009ACE8C009ACE8DB
:10088000C00921F007018D46704710B50446AFF34B
:1008900000802046BDE81040FFF78BBD002801D046
:1008A00000F02AB87047000010B5012805D00021DB
:1008B00003A000F027F8012010BD09A1F8E700000F
:1008C00053494752544D454D3A204F7574206F6639
:1008D0002068656170206D656D6F727900000000A1
:1008E0003A2048656170206D656D6F727920636F85
:1008F000727275707465640001491820ABBEFEE722
:100900002600020070B505460C460A2000E06D1C6A
:1009100000F011F835B128780028F8D102E0641C05
:1009200000F009F814B120780028F8D1BDE8704033
:100930000A20AFF3008008B569468DF80000032057
:10094000ABBE08BD00000000C0E9051240F608017A
:1009500041820021A0F80F10C0E90011816081815F
:10096000704700000000000010B540F21F12DDF8D3
:1009700028E09142DDF824C04FEA1E6218D040F210
:100980000F13994218BF10BD9CFA8CF16FF0FF0352
:1009900003EA1C24090C818044EA1C6101819EFA4F
:1009A0008EF4210CC18003EA1E211144418106E02E
:1009B0009CFA8CF180F80EE0090C8181C273012150
:1009C000017410BD0000000080B5024600884FF0A1
:1009D000000E010A02F81C1F507032F81A0C5071F8
:1009E00012F8093C010A40F20000C2F20040117105
:1009F00032F8041CA2F802E0D0F804C052F8080C47
:100A0000A2F806E0BDE8804060470000000000005A
:100A1000FEE700000000000041F29C10C2F200401E
:100A2000007C012811D140F63060C2F2004090ED08
:100A30001D0AB5EE400AF1EE10FA08BF704740F209
:100A40006800C2F2004009F0AFB970470000000032
:100A500041F2D820C2F2004001F02EB800000000A0
:100A600041F25030C2F2004001F026B80000000010
:100A700041F2C830C2F2004001F01EB80000000090
:100A800041F24040C2F2004001F016B80000000000
:100A900041F26020C2F2004001F00EB800000000F8
:100AA00041F2E810C2F2004001F006B80000000078
:100AB00040F20F42D0F800C0C4F20202944510DCAC
:100AC0006F22C4F20202944520DC3F22C4F20202EB
:100AD000944536DC1022C4F20202944554D02822F8
:100AE0004EE040F26F42C4F2020294451ADC40F23A
:100AF0003F42C4F2020294452ADC40F21042C4F2A2
:100B00000202944540D040F2284239E09F22C4F2CC
:100B10000202944525DC7022C4F20202944533D0CF
:100B200088222DE040F29F42C4F2020294451FDC6D
:100B300040F27042C4F20202944525D040F288424D
:100B40001EE04022C4F2020294451DD0582217E054
:100B500040F24042C4F20202944515D040F258429D
:100B60000EE0A022C4F2020294450DD0B82207E0A4
:100B700040F2B842C4F20202944505D040F2A042CD
:100B8000C4F20202944517D10CF0F8024AF6AB23E6
:100B9000103ACAF6AA23A2FB033109A35F2AC1F3C4
:100BA00002115B5C40F2FF312CEA0101C36588BF92
:100BB00004318165084670472CF0FF01F9E700BF5A
:100BC000000610160006101670B540F26F44D0F8FB
:100BD00000C0C4F20204D0F858E0A44519DC9F25F7
:100BE000C4F20205AC4531DC5725C4F20205AC4520
:100BF00056DC1025C4F20205AC4500F09280282591
:100C0000C4F20205AC4500F08C804025C4F2020518
:100C100084E045F22F45C5F60205AC452BDC40F2D9
:100C2000B745C4F20205AC4548DC40F27045C4F259
:100C30000205AC4575D040F28845C4F20205AC45CA
:100C40006FD040F2A045C4F2020567E040F22745AC
:100C5000C4F20205AC4540DCA025C4F20205AC4557
:100C60005FD0B825C4F20205AC455AD040F2104519
:100C7000C4F2020552E045F26B45C5F60205AC45EB
:100C80003CDC45F23045C5F60205AC4549D045F29D
:100C90004445C5F60205AC4543D045F258453BE016
:100CA0005825C4F20205AC453BD07025C4F20205BC
:100CB000AC4536D08825C4F202052FE040F2B84595
:100CC000C4F20205AC452CD045F20845C5F6020534
:100CD000AC4526D045F21C451EE040F22845C4F242
:100CE0000205AC451DD040F24045C4F20205AC45BA
:100CF00017D040F25845C4F202050FE045F26C45AA
:100D0000C5F60205AC450CD045F29445C5F6020582
:100D1000AC4506D045F28045C5F60205AC4540F02D
:100D2000CC80456EC66E002E866E6E601CBFD0E90C
:100D30001C566E60A44515DC9F24C4F20204A44531
:100D40002BDC5724C4F20204A4454EDC1024C4F268
:100D50000204A44576D02824C4F20204A44571D02C
:100D600040246BE045F22F44C5F60204A44527DC7D
:100D700040F2B744C4F20204A44542DC40F270449D
:100D8000C4F20204A4455DD040F28844C4F20204D7
:100D9000A44557D040F2A04450E040F22744C4F2AA
:100DA0000204A4453CDCA024C4F20204A44549D0BA
:100DB000B824C4F20204A44544D040F210443DE0FB
:100DC00045F26B44C5F60204A44553DC45F23044B9
:100DD000C5F60204A4455FD045F24444C5F60204BA
:100DE000A44559D045F2584452E05824C4F20204B4
:100DF000A44527D07024C4F20204A44522D088243C
:100E00001CE040F2B844C4F20204A4451AD045F2F2
:100E10000844C5F60204A4453ED045F21C4437E020
:100E200040F22844C4F20204A4450BD040F24044EE
:100E3000C4F20204A44505D040F25844C4F20204AE
:100E4000A4453AD18468C06D00F01F003F2505FA23
:100E500000F0CEF80800DCF80000402C20F48020E0
:100E6000CCF80000CCF8043023D1CCF80820CCF822
:100E70000C1070BD45F26C44C5F60204A4450BD0BD
:100E800045F28044C5F60204A44505D045F29444D9
:100E9000C5F60204A44510D1C46D012504F01F0459
:100EA000806805FA04F4CEF804404028CCF80430F9
:100EB000DBD0CCF80810CCF80C2070BD000000008E
:100EC00041F2040040F60C62CEF20000C2F2004291
:100ED000016892ED001AB8EE411A21EE000A00BF37
:100EE0000268521A01EE102AB8EE411AB4EE410A15
:100EF000F1EE10FAF4DC7047B0B582B041F2040CA8
:100F000040F60C62CEF2000CC2F20042DCF8001097
:100F10000091009C036812680099016040F624600B
:100F2000C2F200400178D1B940F6186E012101707B
:100F3000C2F2004EDCF8001001910199DEF8005079
:100F4000A94206D240F61C61C2F200410D6801358B
:100F50000D60DCF80010CEF8001000210170E01ADE
:100F600001EE102A00EE100AB8EE411AB8EE400A5F
:100F700080EE010A02B0B0BD2DE9F04182B041F22D
:100F80000400CEF200000168009140F62461C2F234
:100F900000410A78002A40F61C62C2F2004212D1D7
:100FA00001230B700368019340F61863019FC2F29E
:100FB00000431E68B74202D2176801371760006805
:100FC0001860002008701068009D4FF0FF31002667
:100FD000E0FB015640F60C60C2F2004000233146AF
:100FE000076828463A46FFF73AFA8046A0FB070210
:100FF00001FB072100232D1A40F61060C2F20040C9
:101000008E413146076828463A46FFF728FA0446DB
:1010100040F6146280B2C2F20042784300231268A4
:10102000281A66F10001FFF71AFA80B24FF47A71BC
:1010300008FB01F101EE100A9FED072A11FA84F175
:1010400000EE101AB8EE411AB8EE400AA1EE020AFC
:1010500002B0BDE8F08100BF6F12833A00000000CB
:101060004EF6FC5241F20401CEF20002CEF2000133
:101070004FF0000C136843F080731360C1F800C098
:1010800051F8042C42F0010241F8042C44F24022B1
:10109000C0F20F02504340F60C62C2F200421060F0
:1010A00044F6D352C1F26202A0FB02234DF68362E2
:1010B000C4F21B32A0FB020240F61060C2F20040F4
:1010C0009B090360900C40F61462C2F2004210606B
:1010D00040F61C62C2F2004240F62460C2F20040B8
:1010E000C2F800C00378002B18BF704710B581B05C
:1010F00040F6186E4FF0010C80F800C0C2F2004EAE
:101100000B680093009BDEF80040A34238BFC2F892
:1011100000C00968CEF800100021017001B0BDE8E0
:101120001040704700000000704700000000000001
:10113000EFF3108072B600BFFEE700000000000071
:1011400041F2B840C2F2004002F082B80000000054
:1011500041F25850C2F2004002F07AB8000000009C
:10116000F0B5D1E900C4D1F808E00D692CB14EEA20
:101170000C04254345F0804C03E045EA8C4444EAE6
:101180000E0C856ED0F88470D1E907466B438D69EB
:1011900044EA0660D1F814E00543CC6807EB83000D
:1011A00045EA0E0647F823C046EA04034360CB68CD
:1011B000B3F5803F38BFF0BD4EF2587C08300132A5
:1011C0000023C0F6000C00BFD71857F8017CC750A9
:1011D000CF8904331CF80770BB42F5D3F0BD000083
:1011E000B0B5CB070FD14FF0010C4FF0000EBEF1A0
:1011F000000F06D000684161816821F01801114399
:1012000081606046B0BD1F233BB1013B03F01F046A
:1012100021FA04F4E407F7D001E04FF0FF334FEA7E
:10122000F205032DDFD84FF0000C4FF0010EDFE880
:1012300005F002030E19DAE74FF0000E102B38BF4D
:101240004FF0010E0F2B88BF4FF0010CCFE74FF08E
:10125000000E082B38BF4FF0010E072B88BF4FF050
:10126000010CC4E74FF0000E072B38BF4FF0010E02
:10127000062B88BF4FF0010CB9E70000000000000A
:10128000B0B110B50446407F20B900202077204639
:1012900000F032F802206077207958B1D4E90212C8
:1012A0002046FFF79DFF00281CBF012010BD0BE06A
:1012B00001207047206841F6B751C0F2C141416139
:1012C000816821F018018160607908B1206901E02E
:1012D0004FF0FF302168D4E905230861886820F0C9
:1012E000600010438860886820F0800018438860A0
:1012F00001206077002010BD44F2E0410068C5F68F
:10130000020101F5E462904218BF704781B008689D
:1013100040F400200860086800F400200090009865
:1013200001B07047000000002DE9F041044602F0D2
:10133000F3FC14B3054694F83500022820D140F29E
:101340000F462768C4F2020640F26F48B7426FF0BA
:101350000E00C4F2020817DC6F21C4F202018F42B2
:1013600023DC3F21C4F202018F4239DC1021C4F298
:1013700002018F4258D0282151E00120BDE8F081C0
:1013800080206065012040E247451ADC40F23F4181
:10139000C4F202018F422ADC40F21041C4F2020181
:1013A0008F4241D040F2284139E09F21C4F202012E
:1013B0008F4225DC7021C4F202018F4234D0882193
:1013C0002DE040F29F41C4F202018F421FDC40F247
:1013D0007041C4F202018F4226D040F288411EE0E3
:1013E0004021C4F202018F421ED0582117E040F282
:1013F0004041C4F202018F4216D040F258410EE043
:10140000A021C4F202018F420ED0B82107E040F2C1
:10141000B841C4F202018F4206D040F2A041C4F2AA
:1014200002018F42394607D13946386820F01E0044
:1014300041F8140B6FF080000A68474500EA02008B
:10144000086019DC9F20C4F20200874231DC57207B
:10145000C4F20200874256DC1020C4F20200874228
:1014600000F091802820C4F20200874200F08B80B7
:101470004020C4F2020084E045F22F40C5F602008D
:1014800087422BDC40F2B740C4F20200874248DCBE
:1014900040F27040C4F20200874274D040F28840AB
:1014A000C4F2020087426ED040F2A040C4F20200B3
:1014B00067E040F22740C4F20200874240DCA020EF
:1014C000C4F2020087425ED0B820C4F20200874214
:1014D00059D040F21040C4F2020052E045F26B4095
:1014E000C5F6020087423CDC45F23040C5F60200FA
:1014F000874248D045F24440C5F60200874242D0B8
:1015000045F258403BE05820C4F2020087423AD0EE
:101510007020C4F20200874235D08820C4F2020055
:101520002FE040F2B840C4F2020087422BD045F2CF
:101530000840C5F60200874225D045F21C401EE057
:1015400040F22840C4F2020087421CD040F24040E2
:10155000C4F20200874216D040F25840C4F20200A2
:101560000FE045F26C40C5F6020087420BD045F211
:101570009440C5F60200874205D045F28040C5F68A
:101580000200874204D1206E016821F4807101605D
:10159000386820F0010038603868C0070BD002F0CE
:1015A000BBFB401B0628F7D320206065032084F88E
:1015B0003500012029E12068B04210DC6F21C4F21F
:1015C000020188421CDC3F21C4F20201884232DC65
:1015D0001021C4F20201884250D028214AE040453F
:1015E0001ADC40F23F41C4F2020188422ADC40F298
:1015F0001041C4F20201884240D040F2284139E053
:101600009F21C4F20201884225DC7021C4F202014C
:10161000884233D088212DE040F29F41C4F202017C
:1016200088421FDC40F27041C4F20201884225D09A
:1016300040F288411EE04021C4F2020188421DD0E0
:10164000582117E040F24041C4F20201884215D00F
:1016500040F258410EE0A021C4F2020188420DD0B0
:10166000B82107E040F2B841C4F20201884205D037
:1016700040F2A041C4F20201884259D1D4E91612C5
:1016800002F01F023F2303FA02F28A60404559DC50
:101690009F21C4F20201884214DC5721C4F20201E6
:1016A000884226DC1021C4F20201884200F09D80AD
:1016B0002821C4F20201884200F097804021C4F240
:1016C000020190E040F22741C4F2020188421EDC90
:1016D000A021C4F20201884200F08780B821C4F240
:1016E0000201884200F0818040F21041C4F2020100
:1016F00079E05821C4F20201884276D07021C4F208
:101700000201884271D08821C4F202016BE040F2EC
:101710002841C4F20201884267D040F24041C4F23D
:101720000201884261D040F25841C4F202015AE0FD
:10173000D4E9161202F01F02012303FA02F24A60F2
:101740004045A5DD45F22F41C5F60201884216DC71
:1017500040F2B741C4F20201884225DC40F27041F8
:10176000C4F20201884240D040F28841C4F2020132
:1017700088423AD040F2A041C4F2020133E045F27F
:101780006B41C5F6020188421DDC45F23041C5F6C9
:101790000201884229D045F24441C5F6020188423F
:1017A00023D045F258411CE040F2B841C4F2020196
:1017B00088421AD045F20841C5F60201884214D089
:1017C00045F21C410DE045F26C41C5F6020188422C
:1017D0000BD045F29441C5F60201884205D045F28E
:1017E0008041C5F6020188420BD1616EA26EE06EA7
:1017F0004A6030B1016821F480710160D4E91C01B4
:101800004160012084F835000020002184F8341064
:10181000BDE8F08100000000F0B190F83510022919
:1018200018D180B540F20F420168C4F20202914221
:1018300014DC6F23C4F20203994224DC3F23C4F278
:10184000020399423ADC1023C4F20203994258D0B1
:10185000282352E0802141650120704740F26F4308
:10186000C4F2020399421ADC40F23F43C4F202037D
:1018700099422ADC40F21043C4F20203994240D05C
:1018800040F2284339E09F23C4F20203994225DC49
:101890007023C4F20203994233D088232DE040F232
:1018A0009F43C4F2020399421FDC40F27043C4F22A
:1018B0000203994225D040F288431EE04023C4F23F
:1018C000020399421DD0582317E040F24043C4F26E
:1018D0000203994215D040F258430EE0A023C4F20F
:1018E000020399420DD0B82307E040F2B843C4F296
:1018F0000203994205D040F2A043C4F20203994288
:1019000071D191424FF0040280F8352010DC6F2035
:10191000C4F20200814220DC3F20C4F20200814276
:1019200036DC1020C4F20200814253D028204EE061
:1019300040F26F40C4F2020081421ADC40F23F40A4
:10194000C4F2020081422ADC40F21040C4F20200DC
:1019500081423FD040F2284039E09F20C4F202008B
:10196000814225DC7020C4F20200814232D08820FE
:101970002DE040F29F40C4F2020081421FDC40F2A1
:101980007040C4F20200814224D040F288401EE040
:101990004020C4F2020081421CD0582017E040F2DF
:1019A0004040C4F20200814214D040F258400EE0A0
:1019B000A020C4F2020081420CD0B82007E040F21F
:1019C000B840C4F20200814204D040F2A040C4F208
:1019D00002008142086820F0010008600021BDE893
:1019E0008040084670470A6822F00E020A6045F2FD
:1019F0005742C5F6020291420A6822F001020A60CB
:101A00000EDC45F22F42C5F60202914217DC45F288
:101A10000842C5F60202914226D045F21C421FE060
:101A200045F27F42C5F60202914211DC45F258426E
:101A3000C5F60202914217D045F26C4210E045F221
:101A40003042C5F6020291420ED045F2444207E010
:101A500045F29442C5F60202914205D045F2804219
:101A6000C5F6020291421AD1D0E9181CD0E916E35A
:101A70000A6822F480720A6003F01F01012202FA50
:101A800001F1CEF80410816ECCF80410C16E31B1B2
:101A90000A6822F480720A60D0E91C124A600121AF
:101AA00080F83510026D0021002A80F8341096D09D
:101AB000904793E7000000002DE9F04381B000213A
:101AC000009140F25C010446C2F2004148F2B512B6
:101AD000C1F64E32A56D096840F26F490068C4F244
:101AE0000209A1FB021848452E682A6815DC9F21CF
:101AF000C4F2020188422BDC5721C4F20201884261
:101B00004FDC1021C4F20201884278D02821C4F2AF
:101B10000201884273D040216CE045F22F41C5F6A6
:101B20000201884227DC40F2B741C4F20201884238
:101B300043DC40F27041C4F2020188425FD040F2BF
:101B40008841C4F20201884259D040F2A04151E0DC
:101B500040F22741C4F2020188423DDCA021C4F2D8
:101B6000020188424BD0B821C4F20201884246D01B
:101B700040F210413EE045F26B41C5F60201884259
:101B800075DC45F23041C5F60201884200F08280E2
:101B900045F24441C5F6020188427BD045F25841E6
:101BA00073E05821C4F20201884228D07021C4F2A7
:101BB0000201884223D088211CE040F2B841C4F2DF
:101BC000020188421BD045F20841C5F60201884255
:101BD00060D045F21C4158E040F22841C4F20201B5
:101BE00088420CD040F24041C4F20201884206D043
:101BF00040F25841C4F20201884240F04E84E16D47
:101C0000082201F01F018A40324200F0168140F2A2
:101C10000F43C4F2020398424FF0040313DC6F2712
:101C2000C4F20207B84200F391803F27C4F20207D2
:101C3000B84200F3D2801027C4F20207B84200F085
:101C4000F0802827E8E0484500F38C8040F23F47C9
:101C5000C4F20207B84200F3C78040F21047C4F252
:101C60000207B84200F0DD8040F22847D4E045F298
:101C70006C41C5F6020188420CD045F28041C5F6A0
:101C80000201884206D045F29441C5F6020188421D
:101C900040F003840368E16D01F01F01042707FA97
:101CA00001F6164218BF13F004072CD1022707FAD9
:101CB00001F6164218BF13F0020762D1CA4012079C
:101CC00040F1EB8313F0080200F0E78340F20F428B
:101CD000C4F2020290426FF01C0200F305836F23EE
:101CE000C4F20203984200F324833F23C4F20203A8
:101CF000984200F369831023C4F20203984200F073
:101D0000BB832823B2E319046E605ED4990600F108
:101D1000D88340F20F41C4F2020188426FF00801FB
:101D200000F3F5826F22C4F20202904200F30E83A8
:101D30003F22C4F20202904200F34D831022C4F20B
:101D40000202904200F0BA832822B1E39F27C4F236
:101D50000207B84251DC7027C4F20207B84260D0D3
:101D6000882759E040F29F47C4F20207B8424BDC93
:101D700040F27047C4F20207B84252D040F288479E
:101D80004AE019046E6000F19B82990600F1CA8353
:101D900040F20F41C4F2020188426FF0140100F3D7
:101DA000E2826F22C4F20202904200F31B833F22C0
:101DB000C4F20202904200F387831022C4F20202AE
:101DC000904200F0A68328229DE3D80300F1798396
:101DD000A16C002940F0A9835FE34027C4F2020709
:101DE000B8421ED0582717E040F24047C4F202071D
:101DF000B84216D040F258470EE0A027C4F20207BE
:101E0000B8420ED0B82707E040F2A047C4F202075C
:101E1000B84206D040F2B847C4F20207B84218BF31
:101E2000082307681F4208D0036823F004030360F7
:101E3000AA60626D42F00102626501228A4032426C
:101E40006FD040F20F43C4F20203984210DC6F23BC
:101E5000C4F2020398421CDC3F23C4F202039842FE
:101E600032DC1023C4F20203984251D028234AE006
:101E700048451ADC40F23F43C4F2020398422ADC90
:101E800040F21043C4F20203984241D040F228438A
:101E900039E09F23C4F20203984225DC7023C4F288
:101EA0000203984234D088232DE040F29F43C4F2CD
:101EB000020398421FDC40F27043C4F202039842CE
:101EC00026D040F288431EE04023C4F20203984229
:101ED0001ED0582317E040F24043C4F20203984258
:101EE00016D040F258430EE0A023C4F202039842F9
:101EF0000ED0B82307E040F2B843C4F20203984280
:101F000006D040F2A043C4F20203984240F0E081C0
:101F1000436903F0800323B1AA60626D42F00202BC
:101F2000626504228A4032426FD040F20F43C4F20D
:101F30000203984210DC6F23C4F2020398421CDCB7
:101F40003F23C4F20203984232DC1023C4F202039E
:101F5000984251D028234AE048451ADC40F23F43DA
:101F6000C4F2020398422ADC40F21043C4F2020396
:101F7000984241D040F2284339E09F23C4F2020343
:101F8000984225DC7023C4F20203984234D088239F
:101F90002DE040F29F43C4F2020398421FDC40F25E
:101FA0007043C4F20203984226D040F288431EE0F8
:101FB0004023C4F2020398421ED0582317E040F297
:101FC0004043C4F20203984216D040F258430EE058
:101FD000A023C4F2020398420ED0B82307E040F2D7
:101FE000B843C4F20203984206D040F2A043C4F2C0
:101FF0000203984240F07281036803F0020323B1A8
:10200000AA60626D42F004026265102202FA01F1D8
:1020100031427DD040F20F42C4F2020290424FF0B2
:10202000080210DC6F23C4F2020398421CDC3F2339
:10203000C4F20203984232DC1023C4F20203984235
:1020400051D028234AE048451ADC40F23F43C4F20D
:10205000020398422ADC40F21043C4F20203984281
:1020600041D040F2284339E09F23C4F20203984252
:1020700025DC7023C4F20203984234D088232DE07B
:1020800040F29F43C4F2020398421FDC40F27043C7
:10209000C4F20203984226D040F288431EE0402357
:1020A000C4F2020398421ED0582317E040F2404386
:1020B000C4F20203984216D040F258430EE0A02327
:1020C000C4F2020398420ED0B82307E040F2A043C6
:1020D000C4F20203984206D040F2B843C4F20203AD
:1020E000984218BF04220368134211D0A960016806
:1020F0004903016806D4C90506D4016821F0080126
:10210000016001E0080352D4216C09B120468847E0
:10211000E06D00F01F01202000FA01F2324200F0D1
:10212000A68040F20F432068C4F2020398424FF0A9
:10213000100310DC6F27C4F20207B8421CDC3F27F3
:10214000C4F20207B84236DC1027C4F20207B842D4
:1021500055D028274EE048451ADC40F23F47C4F2EC
:102160000207B8422EDC40F21047C4F20207B84220
:1021700045D040F228473DE09F27C4F20207B8420D
:1021800029DC7027C4F20207B84238D0882731E032
:1021900040F29F47C4F20207B84223DC40F2704786
:1021A000C4F20207B8422AD040F2884722E0A16C6C
:1021B0000029ABD1ACE74027C4F20207B8421ED0D9
:1021C000582717E040F24047C4F20207B84216D041
:1021D00040F258470EE0A027C4F20207B8420ED0E2
:1021E000B82707E040F2A047C4F20207B84206D081
:1021F00040F2B847C4F20207B84218BF022307688A
:102200001F4234D0AA6094F83520042A026816D1FF
:1022100022F016020260426922F080024261226CC2
:102220000AB9A26C1AB1026822F0080202603F20CB
:102230008840A860012084F83500216D27E1510312
:1022400001680CD4C9050ED4016821F010010160A9
:10225000012084F83500002084F8340003E00803EE
:1022600001D4616C00E0E16B09B120468847606DE4
:10227000002800F01281606DC0071CD0042084F893
:10228000350020684FEA9821026822F001020260BE
:10229000009A013200928A4202D80268D207F7D12E
:1022A0000068C0074FF0030008BF012084F8350024
:1022B000002084F83400E16C002940F03681ECE025
:1022C000D80300F12F81616C002940F02E81E4E0F9
:1022D00003680023002B7FF41FAE22E6036800236F
:1022E000002B7FF48DAE90E648454FDC40F23F4333
:1022F000C4F20203984200F3828040F21043C4F219
:102300000203984200F0B88040F22843AEE048450E
:102310004BDC40F23F42C4F20202904278DC40F2D1
:102320001042C4F20202904200F0C88040F22842FB
:10233000BEE09F23C4F20203984272DC7023C4F211
:102340000203984200F0988088238FE09F22C4F215
:10235000020290426CDC7022C4F20202904200F051
:10236000AD808822A4E0484569DC40F23F42C4F2D7
:102370000202904200F3AF8040F21042C4F2020227
:10238000904200F0C68040F22842BCE040F29F43F9
:10239000C4F20203984261DC40F27043C4F20203CB
:1023A000984269D040F2884360E040F29F42C4F214
:1023B0000202904274DC40F27042C4F20202904287
:1023C0007CD040F2884273E04023C4F2020398427A
:1023D00052D058234AE04022C4F2020290426DD00B
:1023E000582265E09F22C4F2020290427CDC7022F7
:1023F000C4F20202904200F08C80882283E040F216
:102400004043C4F20203984236D040F258432DE0D4
:1024100040F24042C4F2020290424FD040F2584291
:1024200046E0A023C4F20203984225D0B8231DE061
:10243000A022C4F20202904240D0B82238E040F21A
:102440009F42C4F20202904255DC40F27042C4F254
:10245000020290425DD040F2884254E040F2A04334
:10246000C4F20203984207D040F2B843C4F2020318
:10247000984218BF6FF00E0203681A4002600120F4
:1024800000FA01F16960606584F83500E16C0029AB
:102490004FF0000084F8340047D101B0BDE8F0836C
:1024A00040F2A042C4F20202904207D040F2B84289
:1024B000C4F20202904218BF6FF00401026811409A
:1024C0000160216C89BBE8E74022C4F2020290421D
:1024D0001FD0582217E040F24042C4F2020290425C
:1024E00017D040F258420EE0A022C4F202029042FD
:1024F0000FD0B82207E040F2A042C4F2020290429C
:1025000007D040F2B842C4F20202904218BF6FF006
:102510000A01026811400160012084F835000020A2
:1025200084F83400E16B0029B7D0204601B0BDE843
:10253000F0430847000000002DE9F041044601F097
:10254000EBFBECB140F26F4805462068C4F202088C
:10255000404518DC9F21C4F2020188422EDC57213D
:10256000C4F20201884254DC1021C4F20201884204
:102570007ED02821C4F20201884279D0402172E045
:102580000120BDE8F08145F22F41C5F602018842E5
:1025900027DC40F2B741C4F20201884245DC40F238
:1025A0007041C4F20201884262D040F28841C4F214
:1025B000020188425CD040F2A04154E040F2274141
:1025C000C4F20201884240DCA021C4F20201884228
:1025D0004ED0B821C4F20201884249D040F21041E5
:1025E00041E045F26B41C5F60201884200F3B88034
:1025F00045F23041C5F60201884200F0C38045F241
:102600004441C5F60201884200F0BC8045F25841C1
:10261000B4E05821C4F20201884229D07021C4F2EA
:102620000201884224D088211DE040F2B841C4F262
:10263000020188421CD045F20841C5F602018842D9
:1026400000F0A08045F21C4198E040F22841C4F21D
:10265000020188420CD040F24041C4F2020188429B
:1026600006D040F25841C4F20201884240F0DE80B8
:10267000022184F83510002184F83410016821F01B
:102680000101016020680168C9070CD001F044FB1A
:10269000401B0628F6D320206065032084F835000F
:1026A0000120BDE8F08148F23F0204F1080701680B
:1026B000CFF61062114066698CCF1143D4F818C070
:1026C0001943E3693943276A0E43616A3343042996
:1026D00043EA070343EA0C0303D1D4E90B763743FB
:1026E0003B436568A5F12906292E00F2A180012748
:1026F000DFE806F01515151515159E9E9E9E9E9EEB
:102700009E9E9E9E9E9E9E9E9E9E151515159E9E0D
:102710009E9E15159E9E9E9E9E9E15151515002F1C
:1027200018BF43F4801304290360426922F00702B2
:1027300041EA020140F09080D4E90A53002B41EABB
:10274000050100F08980BCF5005F5FD0BCF1000F8F
:1027500068D1022D74D0012D5ED0002D70D072E0B2
:1027600045F26C41C5F6020188420BD045F280412A
:10277000C5F60201884205D045F29441C5F6020132
:10278000884253D104F1080E022184F8351000214B
:1027900084F834100168A3699EE80450A2F1800512
:1027A000E769B5FA85F566696D09402A4FEA85350E
:1027B00043EA07026FF3101142EA060208BF102530
:1027C00041EADC0142EA0E022943236A41EAD201CE
:1027D0004AF6F832CAF2FD724CF6CD470244CCF606
:1027E000CC4741EA1311A2FB072301606FF00300FD
:1027F00000EA9300E0652046FEF75AF9E16D0122F8
:1028000001F01F0102FA01F1416030E0032D1AD8F6
:10281000DFE805F00A160A02A3F1C072B2FA82F2EA
:10282000520911E0032D0AD201220DE0402033E7C6
:1028300025F00302743AB2FA82F257096FE702D127
:10284000C3F3006200E0002232B140206065012045
:1028500084F83500BDE8F08141612046FEF728F993
:10286000E16D3F2201F01F0102FA01F18160206851
:10287000404519DC9F21C4F20201884231DC572116
:10288000C4F20201884256DC1021C4F202018842DF
:1028900000F092802821C4F20201884200F08C806E
:1028A0004021C4F2020184E045F22F41C5F6020145
:1028B00088422BDC40F2B741C4F20201884248DC76
:1028C00040F27041C4F20201884275D040F2884162
:1028D000C4F2020188426FD040F2A041C4F202016A
:1028E00067E040F22741C4F20201884240DCA021A7
:1028F000C4F2020188425FD0B821C4F202018842CA
:102900005AD040F21041C4F2020152E045F26B414C
:10291000C5F6020188423CDC45F23041C5F60201B1
:10292000884249D045F24441C5F60201884243D06D
:1029300045F258413BE05821C4F2020188423BD0A5
:102940007021C4F20201884236D08821C4F202010B
:102950002FE040F2B841C4F2020188422CD045F287
:102960000841C5F60201884226D045F21C411EE00E
:1029700040F22841C4F2020188421DD040F2404199
:10298000C4F20201884217D040F25841C4F2020159
:102990000FE045F26C41C5F6020188420CD045F2C9
:1029A0009441C5F60201884206D045F28041C5F641
:1029B0000201884240F0D08045F2574C45F6FC01B8
:1029C000C5F6020CC5F6020160450EDC45F22F4348
:1029D000C5F60203984217DC45F20843C5F6020328
:1029E000984226D045F21C431FE045F27F43C5F6CE
:1029F0000203984211DC45F25843C5F6020398429F
:102A000017D045F26C4310E045F23043C5F602039F
:102A100098420ED045F2444307E045F29443C5F690
:102A20000203984205D045F28043C5F6020398425E
:102A300050D100F0FC034CF6CD47083BCCF6CC4718
:102A4000A3FB0737A1F1FC05A1F17C063B0905EBCF
:102A500083022266A26803F01F030127802A6666AC
:102A600007FA03F2A26601D1002262606268A56ED5
:102A7000D4E91876D3B2013A072A3B60756015D8BD
:102A80005E1E072E62D8604501F1440213DC45F258
:102A90002F47C5F60207B8423CDC45F20847C5F6A9
:102AA0000207B8424BD045F21C4744E00020606763
:102AB000C4E91B0050E045F27F47C5F60207B84263
:102AC00031DC45F25847C5F60207B84237D045F227
:102AD0006C4730E000F0F8034AF6AB27103BCAF62B
:102AE000AA27A3FB073740F20F43C4F202030825CD
:102AF0003E09984203F1AA02334688BF05EB17133B
:102B000040F600059042C4F2020528BF334605F1A5
:102B100080069CE745F23047C5F60207B8420ED062
:102B200045F2444707E045F28047C5F60207B84240
:102B300005D045F29447C5F60207B84213D101EB20
:102B40008300E06601202267B040606704F16C02F8
:102B5000002307CA03604A6000206065012184F8F1
:102B60003510BDE8F08140F60000C4F2020000F12B
:102B7000FC0100F5A072E2E738B1B0B5054690F867
:102B80003400012803D10220B0BD0120704701208C
:102B900085F8340095F83500012828D1022085F801
:102BA0003500002068652868046824F0010404608A
:102BB0002846FEF709F840F20F422868C4F20202E4
:102BC00040F26F419042C4F2020118DC6F23C4F25C
:102BD0000203984224DC3F23C4F2020398423ADC09
:102BE0001023C4F20203984259D0282352E04FF434
:102BF00000606865002085F834000120B0BD88427F
:102C00001ADC40F23F43C4F2020398422ADC40F24D
:102C10001043C4F20203984241D040F2284339E005
:102C20009F23C4F20203984225DC7023C4F20203FE
:102C3000984234D088232DE040F29F43C4F202032F
:102C400098421FDC40F27043C4F20203984226D03F
:102C500040F288431EE04023C4F2020398421ED093
:102C6000582317E040F24043C4F20203984216D0C2
:102C700040F258430EE0A023C4F2020398420ED063
:102C8000B82307E040F2B843C4F20203984206D0EA
:102C900040F2A043C4F20203984240F0238103684B
:102CA0000B2464F3440303602B6C1BB108230468FA
:102CB00023430360884219DC9F23C4F20203984235
:102CC00031DC5723C4F20203984256DC1023C4F2CD
:102CD0000203984200F091802823C4F20203984234
:102CE00000F08B804023C4F2020384E045F22F43BE
:102CF000C5F6020398422BDC40F2B743C4F202034C
:102D0000984248DC40F27043C4F20203984274D007
:102D100040F28843C4F2020398426ED040F2A043CE
:102D2000C4F2020367E040F22743C4F20203984270
:102D300040DCA023C4F2020398425ED0B823C4F260
:102D40000203984259D040F21043C4F2020352E009
:102D500045F26B43C5F6020398423CDC45F2304332
:102D6000C5F60203984248D045F24443C5F6020333
:102D7000984242D045F258433BE05823C4F2020344
:102D800098423AD07023C4F20203984235D0882387
:102D9000C4F202032FE040F2B843C4F202039842A7
:102DA0002BD045F20843C5F60203984225D045F2E0
:102DB0001C431EE040F22843C4F2020398421CD098
:102DC00040F24043C4F20203984216D040F2584306
:102DD000C4F202030FE045F26C43C5F602039842C9
:102DE0000BD045F29443C5F60203984205D045F254
:102DF0008043C5F6020398426ED12B6E1C68E40333
:102E000003D51C6844F480741C60EB6E1BB11D6814
:102E100045F480751D60904210DC6F21C4F2020100
:102E200088421CDC3F21C4F20201884232DC1021BE
:102E3000C4F2020188424FD028214AE088421ADCBD
:102E400040F23F41C4F2020188422ADC40F21041C4
:102E5000C4F2020188423FD040F2284139E09F216C
:102E6000C4F20201884225DC7021C4F202018842CA
:102E700032D088212DE040F29F41C4F20201884205
:102E80001FDC40F27041C4F20201884224D040F2BB
:102E900088411EE04021C4F2020188421CD0582122
:102EA00017E040F24041C4F20201884214D040F2DF
:102EB00058410EE0A021C4F2020188420CD0B82192
:102EC00007E040F2B841C4F20201884204D040F267
:102ED000A041C4F202018842016841F00101016091
:102EE0000020B0BD0368052464F3430303602B6C2A
:102EF000002B3FF4DFAE0423D9E600000000000001
:102F000090F89830013B012B0BD80068836D0B4281
:102F10000CD0836D0B408B420CD1C36D43F0020388
:102F200009E000F19C010120022221E0C36D43F081
:102F3000010300E00323C3658B0504D5D0F8E0301E
:102F40001343C0F8E0304B0504D5D0F8E4301A4301
:102F5000C0F8E4204FF6FF72436DC3F6CF720A400B
:102F60001A4342658A0F4AF614010020C4F2000198
:102F70000B681A430A607047B0B5044690F8980091
:102F800002281AD12068D0F8C03013F07C5F19D025
:102F9000D0F8C4309B021AD4D0F8C400C0F3044562
:102FA00020462B46FEF7DCF820680121A940C0F836
:102FB000D0100020C4F89410B0BDD4F89C0040F0AC
:102FC000080008E0D4F89C0040F0200003E0D4F8AA
:102FD0009C0040F40070C4F89C000120B0BD0000CB
:102FE000704700000000000090F89820013A012A84
:102FF0000BD880B50A68002ACA680ED00B69072A68
:1030000043EA427E16D18B6919E0D0F89C1041F05A
:103010000201C0F89C1001207047072A18D10A69E4
:10302000D1E906C3120442EA032242EA0C0242F04A
:10303000605217E0D1F808C04B6943EA8C73006F07
:10304000496800EBC10240F831E05360002080BDC8
:103050008B68D1E904CE9B0743EAC26242EA0C4284
:1030600042EA0E024968C06E40F82120002080BD6F
:1030700090F898C0BCF1010F0DD19200006842EAAF
:103080000111DDF800C041EA430141EA0C01C0F83A
:10309000801000207047D0F89C1041F00401C0F867
:1030A0009C100120704700007047000000000000E5
:1030B000704700000000000070B590F89850022D95
:1030C0001CD140291FD10568D5F8A04014F4FE0F8B
:1030D00000F08F80D5F8A440640600F09680D5F803
:1030E000A440E40148BFD5F8A040D5F8A45000F1B1
:1030F0007404C5F3052E456CF44629E0D0F89C1005
:1031000041F0080185E0412918D10568D5F8B040A3
:1031100014F4FE0F6DD0D5F8B440640675D0D5F820
:10312000B440E40148BFD5F8B040D5F8B45000F140
:103130007804C5F3052EC56CF44609E0056D8D4293
:1031400057D900F17C04D0F854E04FF0000C0D4644
:1031500005FB0EF6246854F8265015F0804555609E
:1031600054F826E02EF0604508BFCEF38A4504EB04
:10317000860E156054F8265005F00055956054F8F9
:10318000264004F000441461BEF80440D461DEF827
:10319000044004F47024D460DEF80450B4F5803F99
:1031A00005F480155561DEF8045005F400159561AD
:1031B0009EF8075005F07F051562DEF804504FEACF
:1031C000D57454620ED30EF108054EF2587E0024D9
:1031D000C0F6000E2E5D1E550134D6891EF806601D
:1031E000B442F7D3402909D10068C0F8A8C0002034
:1031F00070BDD0F89C1041F020010AE041290CD1AB
:103200000068C0F8B8C0002070BDD0F89C1041F430
:103210008071C0F89C10012070BD1F2907D800687C
:10322000012202FA01F1C0F89810002070BD006878
:1032300001F01F01012202FA01F1C0F89C100020E8
:1032400070BD00000000000070470000000000009A
:103250002DE9F04F89B004464AF61000C4F2000090
:1032600001684AF61400C4F200000268206802EA0D
:103270000108056DD0F85490036D0293436D0193DE
:10328000036D0493436D0393036D0893436D07939C
:10329000036D0693436D0593D0F854A0D0F850B059
:1032A0005FEACA530ED51BF480710BD04FF48071C6
:1032B00001654AF610010020C4F2000108602046B2
:1032C000FFF7C2FF05EA09064AF610095FEA4A500D
:1032D000C4F200094FEA887711D51BF480600ED044
:1032E0002068D0F8DC10D0F8E42011404FF4806260
:1032F00002650020C9F80000204600F025FCDDE949
:10330000011000EA010506F4704657B1206800215B
:10331000016508F00300C9F8000020463946FFF7B0
:103320005FFEDDE9031000EA010705F00F0546B175
:103330002068314606650020C9F80000204600F0EC
:103340000BFC07F0F00645B1206829460565002012
:10335000C9F80000204600F097FB46B120683146CE
:1033600006650020C9F80000204600F0B5FB5FEAC2
:103370000A500CD51BF4006009D020684FF400619E
:1033800001650020C9F80000204600F0E9FB5FEA73
:103390008A5011D51BF400700ED02068D0F8D810D8
:1033A000D0F8E02011404FF4007202650020C9F807
:1033B0000000204600F0CCFB5FEA0A300CD51BF47D
:1033C000002009D020684FF4002101650020C9F8D1
:1033D0000000204600F054FB5FEACA300CD51BF415
:1033E000803009D020684FF4803101650020C9F891
:1033F0000000204600F0A4FB5FEA4A30DDE905103A
:1034000000EA01050CD51BF4802009D020684FF498
:10341000802101650020C9F80000204600F08CFBE7
:103420005FEA8A30DDE9071000EA010005F060710B
:103430000FD51BF400320CD022684FF40033136513
:103440000022C9F80020D4F89C2042F08002C4F881
:103450009C2000F0715539B1206801650020C9F841
:1034600000002046FFF724FE4DB1206805650020CE
:10347000C9F80000D4F89C002843C4F89C002068D8
:10348000A9F50161884209D0D4F89C00002867D0D2
:10349000204609B0BDE8F04FFFF706BE60688168BE
:1034A0008907F1D0016A426A036A476A114003EA58
:1034B000070202F03005D0F82080D0F82490D0F830
:1034C00020B0D0F824A0026A089211F00F01426ADD
:1034D0000792466A026A069203D00162204600F013
:1034E0001FFB08EA09072DB16068294605622046DE
:1034F00000F01EFB70060BEA0A0607F4C0750ED535
:10350000069810F040000AD060684023C16BC26B7F
:10351000090C02F03F020362204600F005FBDDE9E2
:10352000071000EA010706F4FC462DB16068294641
:103530000562204600F0F0FA07F4F02036B1616829
:103540000E62D4F89C103143C4F89C1000289BD024
:1035500061680862D4F89C100843C4F89C0093E7A3
:1035600009B0BDE8F08F000040B32DE9F04F83B003
:103570004AF200080446C4F200080068404502D13F
:1035800008F58070606094F8980028B9002084F8ED
:103590009900204600F0CCF92068816921F01001E3
:1035A000816100F0B9FB054620688169090707D5EC
:1035B00000F0B2FB401B0B28F6D312E0012070474D
:1035C000816941F00101816100F0A6FB054600BF61
:1035D00020688169C90711D100F09EFB401B0B28B0
:1035E000F6D30120D4F89C100843C4F89C000320B3
:1035F00084F89800012003B0BDE8F08F816941F0A4
:1036000002018161217C826922F04002012918BFF8
:1036100040328261617C826922F48042012908BFC4
:1036200002F580428261A17C826922F480520129E4
:1036300018BF02F580528261816921F44073D4E998
:1036400002120B438361836923F0A403836103693E
:1036500023F0100303619AB1012A0DD0022A09D088
:103660008369032A43F080038361036943F01002F6
:10367000026105D1202200E0042283691A4382619D
:10368000D4E90572E369561E6FF0FF02256A02EB6A
:103690000323B1F5407F43EA4663A5F1010646EAFC
:1036A000030640F20003CFF6FF7303EB074746EA39
:1036B0000701C16110D1D4E90B65D4E90917013FB5
:1036C00002EB06226FF00F063A4306EB05173A436A
:1036D00003EB01411143C160236E2BB1616ED0F841
:1036E000C0201143C0F8C010E16DCDE90113D942EB
:1036F0004EF2B851C0F6000109D0D0F8C820A36E30
:1037000022F0070251F823301A43C0F8C820D4F839
:1037100040A0BAF1000F09D0D0F8BC20636C22F0B1
:10372000070251F823301A43C0F8BC20D4F848C02F
:10373000BCF1000F0AD0D0F8BC20E36C22F070027C
:1037400051F8233042EA0312C0F8BC20D4F850B03C
:10375000BBF1000F0AD0D0F8BC20636D22F4E06208
:1037600051F8231042EA0121C0F8BC10404504D1B1
:1037700061688A6822F003028A600021C4F894100C
:10378000C4F89C10012184F8981004F13409D0F891
:1037900084104FF6FC729143656C99E80C02009519
:1037A00041EA8201C0F88410D0F8841021F47F012E
:1037B00041EA0341C0F884109918D0F888306FF3BB
:1037C0008F0343EA8103C0F88830D0F8883023F4AF
:1037D000FE0343EA0943C0F8883001EB4903D0F8FF
:1037E000A0606FF38F0646EA8306C0F8A060D0F8A9
:1037F000A06026F4FE0646EA0A46C0F8A06005FB73
:103800000A36D0F8B0306FF38F0343EA8603C0F86E
:10381000B030D0F8B03023F4FE0343EA0C43C0F8D4
:10382000B030E36CD0F8AC506FF38F0503FB0C663F
:1038300045EA8605C0F8AC50D4F8548008FB0B6507
:10384000D0F8F0606FF38F0646EA8506C0F8F060A6
:10385000D0F8F0E0A66D2EF47C1747EA0647C0F8D2
:10386000F070F70007EB8507D0F8C0506FF38F05B5
:103870002F43C0F8C070D0F8C070009D27F47C17AB
:1038800005FB0AF5DDF804A003FB0C5347EA0A47E1
:10389000C0F8C0704AF20007D0F8C0E0C4F20007D8
:1038A000DDF808C007F5406707EB820207EB8101EE
:1038B0002EF07C5747EA0C67C0F8C07001EBC900D6
:1038C00008FB0B372167A16E00EB8505606700EBF5
:1038D0008303E266C4E91E530AFB01F300EB870091
:1038E0000CFB01F1C4F8800000EBC600C4F88400B2
:1038F00000EB8300C4F8880000EB81004DF2FC313E
:10390000C4F20001C4F89000884201D9202069E681
:10391000824208D2002000BF42F8040BD4F8901075
:103920008A42F9D367E6002003B0BDE8F08F0000BB
:10393000B0B5B6B0044602A8B8210025CDE934558B
:10394000CDE932553195FCF7A3FE4AF200412068DB
:10395000C4F20001884248D04AF20001C4F20001DA
:10396000884240F08B80002003904FF4004002908A
:103970004FF080501D9002A800F04EFC08B1FDF7FA
:10398000D7FB40F6286144F2E040C2F20041C5F6A0
:1039900002000A68002A02F101020A6008D1C16827
:1039A00041F48071C160C16801F480710191019995
:1039B000016841F008010160006840F2004100F038
:1039C00008000190C5F60201019803203190022001
:1039D00032900020CDE933000920359001F50060D8
:1039E00031A900F0C1F8132440E04FF400400290E8
:1039F0004FF080501D9002A8039500F00DFC08B117
:103A0000FDF796FB40F6286144F2E040C2F2004127
:103A1000C5F602000A68002A02F101020A6008D114
:103A2000C16841F48071C160C16801F48071019185
:103A30000199016841F002010160006831A900F0BC
:103A40000200019001986020319002203290002005
:103A5000CDE933000920359040F20040C5F6020060
:103A600000F082F8102000F05FF9142405210022F4
:103A7000204600F031FA204600F01EFA36B0B0BD04
:103A80007047000000000000C90708BF704710B56C
:103A9000044641F2B840C2F20040844209D140F2EB
:103AA0000000C2F20040816841F2B840C2F200401A
:103AB000884741F25850C2F200408442BDE81040AD
:103AC00000D0704740F20000C2F20040816841F22D
:103AD0005850C2F200400847704700000000000044
:103AE00090F8981001290CD1022180F898100168F3
:103AF0008A6922F001028A610021C0F89C10084600
:103B00007047D0F89C1041F00401C0F89C100120CF
:103B10007047000000000000704700000000000037
:103B20007047000000000000704700000000000027
:103B30007047000000000000704700000000000017
:103B40007047000000000000704700000000000007
:103B500070470000000000007047000000000000F7
:103B600070470000000000002DE9F04F82B00C68A3
:103B7000002C00F0C58000F1264242F2004502F11F
:103B8000FF728305C5F602050A27A84243EA92227E
:103B900008BF0927082A40F2040E38BF1746C5F6A9
:103BA000000E002200974FF0030C0026002709E0CA
:103BB00001370C6834FA07F306F1020602F1040239
:103BC00000F09E80012303FA07FA14EA0A09EFD0F5
:103BD000D1F804B00BF00304A4F10108B8F1010F0F
:103BE00011D8D0F808800CFA06F3CD6828EA030350
:103BF000B5402B438360CBF30015436823EA0A03E7
:103C0000BD402B434360032C1DD0C3680CFA06F55E
:103C1000AB438D68B540022C43EA0503C36012D163
:103C20006FF0030302F01C0503EA57030F2403445B
:103C300004FA05FAD3F820800C6928EA0A08AC4097
:103C400044EA08041C6203680CFA06F44D68A343B6
:103C500005F0030415F4403F04FA06F443EA0403B4
:103C60000360A5D044F2F44440F2084AC5F60204C9
:103C7000C5F6000A0F25236843F00203236023687A
:103C800003F00203019327F00303019C02F00C04EC
:103C900053F80A80A54028EA0508009D05FA04F4B7
:103CA00044EA080443F80A404FF0B04ADAF80080CA
:103CB0004C6848EA0905E30258BF28EA0905A3024F
:103CC000CAF80050DEF8008048EA090558BF28EA23
:103CD0000905A303CEF80050DEF8808048EA090504
:103CE00058BF28EA0905E403CEF88050DEF87C309E
:103CF00043EA090558BF23EA0905CEF87C5057E787
:103D000002B0BDE8F08F0000002A08BF09048161FD
:103D1000704700000000000045F64C20C2F2004051
:103D2000006870470000000081B044F2F441C5F61D
:103D300002010A6842F002020A60096801F0020109
:103D4000009140F20441009AC5F600010A68104350
:103D5000086001B07047000040F6985045F64C21CD
:103D6000C2F20040C2F2004100780A6810440860C4
:103D7000704700000000000080B5032000F0DCF870
:103D800001F0EAF844F218414EF25863C5F6020118
:103D9000C0F600030A68C2F303229A5C096801F0C6
:103DA0000F0102F01F02595CD04040F26002C2F2E3
:103DB000004201F01F0120FA01F1116040F25C01A4
:103DC000C2F2004108600F2000F00AF800281CBF72
:103DD000012080BD00F058F8002080BD00000000E8
:103DE0000F2845D8B0B58AB004461C2000222146D1
:103DF000002500F071F81C2000F05EF840F69C50A1
:103E0000C2F20040046044F2E840C5F602000168D6
:103E100041F001010160006801A900F00100029079
:103E2000029802A800F0E4FF079C002C18BF0124B0
:103E300001F032F84DF68361A040C4F21B314FF01F
:103E4000FF32A0FB010141F28060C2F200404FF05E
:103E50008043036002EB9141C0E9011540F2E73174
:103E6000C0E9031501F0B0FE20B101200AB0B0BDD9
:103E70000120704741F28060C2F2004001F0D8FE9C
:103E80000AB0B0BD0000000081B044F2F44000224E
:103E9000C5F60200016841F00201016000680F21CF
:103EA00000F0020000906FF00100009B01B000F0F4
:103EB00013B8000000000000002848BF704700F061
:103EC0001F01012202FA01F14EF200124009CEF266
:103ED000000242F82010704770B54EF60C5C4FF0AF
:103EE000FF36CEF2000C00F1604505F56445DCF8C4
:103EF0000030C3F3022E8EF00703042B28BF0423E7
:103F0000BEF1030406FA03F321EA030100F00F03F4
:103F100038BF0024043B0028634406FA04F048BF7D
:103F200003F10C05A14022EA0000084300012870BB
:103F300070BD0000000000004EF60C514FF6FF036C
:103F4000CEF200010A681A4060F30A2242F0806053
:103F500040F0FD7008607047B0B544F60C05C5F63A
:103F6000020529684907296805D401F00701081AE4
:103F700018BF0120B0BD21F0070108432860FFF7FA
:103F8000CBFE044655F8080C800407D4FFF7C4FEA6
:103F9000001BB0F57A7FF5D90120B0BD0020B0BD7F
:103FA00080B500F051FF44F220414EF25862C5F650
:103FB0000201C0F600020968C1F30211515C01F070
:103FC0001F01C84080BD000080B544F2384EC5F6E0
:103FD000020E5EF8103C5EF8101C5EF80C2CC1F36B
:103FE000053CDEF80410BCF1000F15D0C908D2065C
:103FF00001EAE2716FF35F3100EE101A03F0030182
:104000000229B8EE400A0CD071B95EF8381C890656
:104010000DD49FED351A18E000218160C0E9001130
:1040200080BD9FED301A10E09FED2D1A0DE05EF877
:10403000381C49F20002C0F2D032C1F3C10122FAA9
:1040400001F101EE101AB8EE411ADEF800109FEDF2
:10405000273A6FF35F2102EE101ADEF80010C1F369
:104060004621B8EE422A00EE032A00EE10CAB7EE4F
:10407000003AB8EE400A81EE000A32EE031A02EE70
:10408000101AB8EE422A20EE010A32EE031A80EE30
:10409000011ABCEEC11A80ED001ADEF80010C1F35F
:1040A000064101EE101AB8EE411A31EE031A80EE05
:1040B000011ABCEEC11A80ED011ADEF80010C1F33E
:1040C000066101EE101AB8EE411A31EE031A80EEC5
:1040D000010ABCEEC00A10EE101A816080BD00BF5C
:1040E0000024744A001BB74B0024744C00000039B4
:1040F00080B544F2404EC5F6020E5EF8183C5EF8FC
:10410000181C5EF8142CC1F3055CDEF80410BCF139
:10411000000F15D0C908D20501EAE2716FF35F31D3
:1041200000EE101A03F003010229B8EE400A0CD089
:1041300071B95EF8401C89060DD49FED351A18E060
:1041400000218160C0E9001180BD9FED301A10E0B0
:104150009FED2D1A0DE05EF8401C49F20002C0F2FE
:10416000D032C1F3C10122FA01F101EE101AB8EE0A
:10417000411ADEF800109FED273A6FF35F2102EE3F
:10418000101ADEF80010C1F34621B8EE422A00EE04
:10419000032A00EE10CAB7EE003AB8EE400A81EEEC
:1041A000000A32EE031A02EE101AB8EE422A20EE8E
:1041B000010A32EE031A80EE011ABCEEC11A80ED3C
:1041C000001ADEF80010C1F3064101EE101AB8EE35
:1041D000411A31EE031A80EE011ABCEEC11A80EDCD
:1041E000011ADEF80010C1F3066101EE101AB8EEF4
:1041F000411A31EE031A80EE010ABCEEC00A10EE3D
:10420000101A816080BD00BF0024744A001BB74BA8
:104210000024744C000000392DE9F04381B00446BD
:10422000C07844F22C490007C5F6020901D40025E4
:104230002DE0606E4FEA305003280CD80025DFE8EF
:1042400000F0020D1613D9F8000040F40030C9F850
:10425000000055B913E001253DB910E004F1080054
:10426000022103F00DFE05464DB1A84611E004F110
:104270002800022103F094FE0546002DF5D1D9F85F
:104280002400616E20F440100843C9F824004FF068
:1042900000086078C00730D0A06D042807D8DFE898
:1042A00000F00A131C030300FDB1A84625E0012518
:1042B000002DFAD119E0D9F8000040F40030C9F817
:1042C0000000002DF1D110E004F10800002103F0FE
:1042D000D7FD0546002DE8D107E004F128000021B4
:1042E00003F05EFE0546002DDFD1D9F82400A16D54
:1042F00020F007000843C9F824006078400734D54F
:10430000D4F8A4004FEA7050052807D8DFE800F081
:104310000A131C030303FDB1A84626E00125002D66
:10432000FAD119E0D9F8000040F40030C9F80000D3
:10433000002DF1D110E004F10800002103F0A0FDF0
:104340000546002DE8D107E004F12800002103F024
:1043500027FE0546002DDFD1D9F82C00D4F8A41093
:1043600020F460000843C9F82C006078000734D5B9
:10437000D4F8A8004FEA3060052807D8DFE800F03D
:104380000A131C030303FDB1A84626E00125002DF6
:10439000FAD119E0D9F8000040F40030C9F8000063
:1043A000002DF1D110E004F10800002103F068FDB8
:1043B0000546002DE8D107E004F12800002103F0B4
:1043C000EFFD0546002DDFD1D9F82C00D4F8A81058
:1043D00020F0E0600843C9F82C00E078800728D579
:1043E000E06C4FEA3010032806D8DFE800F002093D
:1043F0001202B5B1A8461CE00125002DFAD110E04B
:10440000D9F8000040F40030C9F80000002DF1D1C7
:1044100007E004F10800022103F032FD0546002DFB
:10442000E8D1D9F82000E16C20F030000843C9F849
:1044300020006078C00632D5E06D4FEA30300428A5
:1044400007D8DFE800F00A131C030300FDB1A846FB
:1044500025E00125002DFAD119E0D9F8000040F43B
:104460000030C9F80000002DF1D110E004F108007F
:10447000002103F005FD0546002DE8D107E004F119
:104480002800002103F08CFD0546002DDFD1D9F86E
:104490002400E16D20F4E0400843C9F8240060786E
:1044A000800626D5206E4FEA3040052807D8DFE881
:1044B00000F0030A100303039DB1A84619E001258B
:1044C000002DFAD10DE004F10800012103F0D8FC21
:1044D00004E004F12800012103F062FD0546002DEF
:1044E000EBD1D9F82400216E20F4E0200843C9F86C
:1044F00024006078400628D5D4F8AC004FEA30702C
:10450000052807D8DFE800F0030A100303039DB174
:10451000A8461AE00125002DFAD10DE004F10800AB
:10452000012103F0ADFC04E004F12800012103F0B7
:1045300037FD0546002DEBD1D9F82C00D4F8AC108E
:1045400020F0E0400843C9F82C006078000620D530
:10455000E06ED8B1B0F1005F12D0B0F1805F25D12C
:10456000D9F8000040F40030C9F8000085B9D9F846
:104570002400E16E20F040500843C9F8240008E010
:1045800004F10800012103F07BFC0546002DEED06C
:10459000A846E078C0072AD0A06C03280AD8DFE834
:1045A00000F0020D1602D5B1A84620E00125002D2D
:1045B000EED1DCE70125002DF6D110E0D9F800009E
:1045C00040F40030C9F80000002DEDD107E004F1FF
:1045D0000800022103F054FC0546002DE4D1D9F86F
:1045E0002000A16C20F003000843C9F82000A07847
:1045F000400643D5D9F8D40340F48070C9F8D403F9
:10460000FFF78AFB064600BFD9F8D403C00505D4DE
:10461000FFF782FB801B6528F6D303256DBBD9F815
:104620004410D4F8B000414011F4407F11D0D9F8C3
:104630004410D9F8442042F48032C9F84420D9F813
:10464000442021F4407122F48032C9F84420C9F892
:104650004410B0F5807F0FD1FFF75EFB064641F2B4
:10466000893700BFD9F84400800705D4FFF754FB11
:10467000801BB842F6D3032585B1A8462078C00731
:1046800042D0A06F4FEAF000052823D8DFE800F001
:1046900003262C0303037DB3A84635E04FF6CF7302
:1046A000D4F8B00059F81C2CC0F2FF0300F440719C
:1046B00022F47C5203EA1013B1F5407F08BF1A437D
:1046C0006FF31F3049F81C2CD9F844100843C9F87F
:1046D0004400D3E70125002DDED10DE004F10800F0
:1046E000012103F0CDFB04E004F12800012103F0D7
:1046F00057FC0546002DCFD1D9F82800A16F20F036
:1047000038000843C9F828002078800724D5606F56
:10471000052807D8DFE800F0030A100303039DB162
:10472000A84619E00125002DFAD10DE004F108009A
:10473000012103F0A5FB04E004F12800012103F0AE
:104740002FFC0546002DEBD1D9F82800616F20F031
:1047500007000843C9F828002078400726D5D4F878
:104760009000052807D8DFE800F0030A10030303D0
:104770009DB1A8461AE00125002DFAD10DE004F103
:104780000800012103F07CFB04E004F12800012172
:1047900003F006FC0546002DEBD1D9F82C00D4F827
:1047A000901020F007000843C9F82C0020788006FC
:1047B00028D5D4F88C004FEA3070052807D8DFE8F8
:1047C00000F0030A100303039DB1A8461AE0012577
:1047D000002DFAD10DE004F10800002103F050FB98
:1047E00004E004F12800022103F0DAFB0546002D65
:1047F000EBD1D9F82800D4F88C1020F0E040084321
:10480000C9F828002078400628D5D4F898004FEA47
:10481000B020052807D8DFE800F0030A10030303DF
:104820009DB1A8461AE00125002DFAD10DE004F152
:104830000800002103F024FB04E004F12800022119
:1048400003F0AEFB0546002DEBD1D9F82C00D4F8CF
:10485000981020F4E0500843C9F82C002078000696
:1048600028D5D4F89C004FEA7030052807D8DFE837
:1048700000F0030A100303039DB1A8461AE00125C6
:10488000002DFAD10DE004F10800002103F0F8FA40
:1048900004E004F12800022103F082FB0546002D0C
:1048A000EBD1D9F82C00D4F89C1020F460400843D8
:1048B000C9F82C002078000716D5D4F88000B0F590
:1048C000805F08D104F12800022103F069FB002871
:1048D00018BF4FF00108D9F82800D4F8801020F450
:1048E00040500843C9F828002078C00616D5D4F8EF
:1048F0009400B0F5807F08D104F12800022103F074
:104900004FFB002818BF4FF00108D9F82C00D4F84D
:10491000941020F440700843C9F82C00A0780007D8
:1049200022D5D4F8A000B0F5003F1AD0B0F5803FF2
:1049300011D0C8BB04F10800002103F0A1FA05461C
:104940008DB9D9F82C00D4F8A01020F440300843D9
:10495000C9F82C0008E004F12800022103F020FB34
:104960000546002DEDD0A846A078400729D5D4F8FB
:104970008400B0F5401F21D0B0F5001F18D0B0F56D
:10498000801F40F0BA80D9F8000040F40030C9F828
:104990000000ADB9D9F82800D4F8841020F44010F4
:1049A0000843C9F828000CE00125002DDBD1C8E739
:1049B00004F12800012103F0F3FA0546002DE9D0A7
:1049C000A846A078C00720D0206DB0F5803F10D059
:1049D000B8B9D9F8000040F40030C9F800009DB91A
:1049E000D9F82000216D20F480300843C9F8200058
:1049F0000BE004F10800022103F042FA05461DB95C
:104A0000EEE70125002DEBD0A846E078800608D51A
:104A100004F12800022103F0C3FA002818BF4FF068
:104A20000108D4E900108A0376D5E26F6FF0010324
:104A300003EB3223022B0AD34FEA32233BB1012B83
:104A400060D1D9F8003043F40033C9F80030002DAC
:104A50005BD0CA0263D48A026BD44A0073D4CA0FF3
:104A600040F08180090200F18980C00707D004F17D
:104A70000800002103F004FA002818BF0546207939
:104A8000800707D504F10800012103F0F9F9002897
:104A900018BF05462079400707D504F10800022118
:104AA00003F0EEF9002818BF05462079000707D566
:104AB00004F12800002103F073FA002818BF05460E
:104AC0002079C00607D504F12800012103F068FA17
:104AD000002818BF05462079800607D504F1280074
:104AE000022103F05DFA002818BF0125002D18BF30
:104AF0000125284601B0BDE8F0830125002D7FF493
:104B00005FAF47E70125002DA3D1D9F8283023F462
:104B100040731A43C9F828204546CA029BD5D9F8E4
:104B20002420236F22F000421A43C9F824208A026D
:104B300093D5D9F82420A36E22F080721A43C9F8C5
:104B400024204A008BD559F81C2C22F4004249F845
:104B50001C2CD4F8B42059F81C3C1A4349F81C2CDE
:104B6000CA0F3FF47FAFD9F82020636D22F0405286
:104B70001A43C9F8202009027FF577AFD9F8281029
:104B8000D4F8882021F440011143C9F82810C00747
:104B90007FF46DAF73E700002DE9F04381B000288A
:104BA00000F0F68042F200080446C5F2002889466B
:104BB000D8F8000000F00F0088420ED2D8F80000AC
:104BC00020F00F0040EA0900C8F80000D8F8000003
:104BD00000F00F00484540F0DB80206844F21847A1
:104BE0004107C5F602070AD521693A6802F070024A
:104BF000914204D93A6822F07002114339600107EA
:104C00000AD561697A6802F07002914204D97A6823
:104C100022F0700211437960C1060AD5A1697A6851
:104C200002F4E062914204D97A6822F4E06211430E
:104C3000796081060AD5E169BA6802F07002914292
:104C400004D9BA6822F070021143B96081070AD50D
:104C5000E1683A6802F00F02914204D93A6822F002
:104C60000F0211433960C00740F08080206881073F
:104C70000AD5E1683A6802F00F02914204D23A681C
:104C800022F00F0211433960D8F8001001F00F0133
:104C900049450DD9D8F8001021F00F0141EA09016A
:104CA000C8F80010D8F8001001F00F0149456FD185
:104CB00041070AD521693A6802F07002914204D294
:104CC0003A6822F070021143396001070AD5616920
:104CD0007A6802F07002914204D27A6822F070027F
:104CE00011437960C1060AD5A1697A6802F4E062CD
:104CF000914204D27A6822F4E0621143796080061E
:104D00000AD5E069B96801F07001884204D2B96837
:104D100021F070010843B86000F01EF939684EF2C6
:104D20005862C0F60002C1F30321515C3B6803F0F6
:104D30000F0301F01F01D25C20FA01F102F01F0005
:104D400040F26002C2F2004221FA00F0106040F628
:104D50009C5040F25C02C2F20040C2F20042006885
:104D6000116001B0BDE8F043FFF73AB83968D4E903
:104D7000010221F47061012841EA020139600BD07F
:104D800003282BD002282ED157F8181C890307D4EA
:104D9000012001B0BDE8F08357F8181CC905F7D50C
:104DA00057F8081C21F00701084347F8080CFEF7E4
:104DB000B3FF064641F2883557F8080C616800F0E9
:104DC0003800B0EBC10F3FF451AFFEF7A5FF801BD9
:104DD000A842F1D9032001B0BDE8F08357F8181CB0
:104DE0008901D5D5DCE757F8181C4907D0D5D7E796
:104DF0003F22026044F21842C5F6020252F8083C13
:104E000003F007034360136803F47063836013685F
:104E100003F00F03C360136803F07003036153686A
:104E200003F070034361536803F4E06383619268A5
:104E300002F07002C26142F20000C5F20020006878
:104E400000F00F000860704780B500F085F844F26C
:104E500018414EF25863C5F60201C0F600030A6815
:104E6000C2F303229A5C096801F00F0102F01F02ED
:104E7000595C20FA02F201F01F0040F26001C2F218
:104E8000004122FA00F0086040F25C01C2F20041E9
:104E90000A6080BD0000000080B500F05DF844F2BB
:104EA000184C4EF25863C5F6020CC0F60003DCF84D
:104EB0000020C2F303229A5CDCF8001001F00F011D
:104EC00002F01F02595CD04040F26002C2F2004280
:104ED00001F01F0120FA01F1116040F25C02C2F200
:104EE00000421060DCF80400C0F30210185C00F00F
:104EF0001F0021FA00F080BD80B500F02DF844F2CB
:104F0000184C4EF25863C5F6020CC0F60003DCF8EC
:104F10000020C2F303229A5CDCF8001001F00F01BC
:104F200002F01F02595CD04040F26002C2F200421F
:104F300001F01F0120FA01F1116040F25C02C2F29F
:104F400000421060DCF80400C0F30220185C00F09E
:104F50001F0021FA00F080BD44F20041C5F60201B5
:104F60000869C0F3C20003280FD002282CD080BBF0
:104F70000868800649F20000C0F2D03058BF704780
:104F80000968C1F3C101C84070478A6A886AC0F3E2
:104F9000051CC86ABCF1000F4B6B1FD000F001006C
:104FA00002F003024042022A00EAD3006FF35F30AE
:104FB00000EE100AB8EE400A12D0A2B908688006C6
:104FC00014D49FED261A1EE043F20060C0F26E106A
:104FD000704740F60010C0F23D0070470020704757
:104FE0009FED1D1A0FE09FED1B1A0CE0086849F2B7
:104FF0000002C0F2D032C0F3C10022FA00F001EE8C
:10500000100AB8EE411A086B9FED153A6FF35F2056
:1050100002EE100A086BC0F34620B8EE422A0130B7
:1050200000EE032A00EE10CAB7EE003AB8EE400ACE
:1050300081EE000A32EE031A20EE010A01EE100A98
:10504000B8EE411A80EE010ABCEEC00A10EE100A5A
:10505000704700BF0024744A001BB74B0024744CF7
:1050600000000039000000002DE9F04381B0002865
:1050700000F06B818046007844F20046C007C5F618
:10508000020649D0306900F03801B06A102905D015
:1050900018290BD100F00300022807D130688003E3
:1050A00036D5D8F8040098BB012726E0D8F804507C
:1050B0002DB1B5F5A02F0AD0B5F5803F0BD03068E3
:1050C00020F480303060306820F4802006E03068C2
:1050D00040F480203060306840F480303060FEF76B
:1050E0001BFE002D054610D03068800310D4FEF75B
:1050F00013FE401B6428F7D90327002060B965E13F
:10510000FEF70AFE401B6428F6D830688003F7D407
:105110000120002800F05A8198F8000080075ED531
:10512000306910F03801B06A19D0182908BF5FEA59
:10513000807014D0D8F80C003168C0B321F0190188
:1051400008433060FEF7E8FD054600BF30684007C1
:1051500023D4FEF7E1FD401B0228F7D91AE030689E
:10516000400704D5D8F80C00002800F0858130688D
:10517000D8F80C1020F0190008433060FEF7CCFD81
:10518000054600BF3068400707D4FEF7C5FD401B49
:105190000228F7D9032700241EE07068D8F8101001
:1051A00020F0FE40012440EA0160706014E021F02C
:1051B00001003060FEF7B0FD05464FF0010900BF69
:1051C000306810F0040089EA900405D0FEF7A4FDD1
:1051D000401B0228F4D90327002C00F0F78098F830
:1051E0000000C0064CD5306900F03801B06A0829CB
:1051F00005D0182914D100F00300012810D130681F
:10520000C00503D5D8F81C00802834D1F068D8F840
:10521000201020F07C50012440EA0160F0602CE076
:10522000D8F81C000028306810D040F080003060B2
:10523000FEF772FD054600BF3068C005E6D4FEF7F4
:105240006BFD401B0228F7D9032715E020F08000F2
:105250003060FEF761FD05464FF00109306810F43B
:10526000807089EA102408D0FEF756FD401B022802
:10527000F4D9032701E001270024002C00F0A680C8
:1052800098F80000000762D498F80000800673D4F4
:1052900098F80000400700F18580D8F82440002CE1
:1052A00051D0306900F03800182840F0C580012C3A
:1052B000B16A306B49D001F00302D8F828309A4225
:1052C00043D1C1F30511D8F82C2091423DD10146BC
:1052D000D8F830206FF35F21013A914235D1C0F305
:1052E0004622D8F8341001398A422ED1C0F3064242
:1052F000D8F8381001398A4227D1C0F30660D8F8AF
:105300003C100139884220D1706BD8F84810C0F3A6
:10531000CC00814217D0F06A20F00100F062FEF765
:10532000FBFC0546FEF7F8FCA842FBD0706B4FF67D
:10533000F871D8F84820884340EAC2007063F06AE8
:1053400040F00100F062002740E001273EE0D8F87D
:1053500014000028706F3DD040F001007067FEF728
:10536000DBFC0546706F80073FF58EAFFEF7D4FC7F
:10537000401B0228F6D928E0D8F818000028306829
:1053800049D040F480503060FEF7C6FC054600BFAF
:10539000306880043FF57CAFFEF7BEFC401B02285E
:1053A000F6D912E0D6F8000440F48070C6F8000484
:1053B000FEF7B2FC054600BFD6F80004C0051BD4BA
:1053C000FEF7AAFC401B6428F6D90327F8B201B007
:1053D000BDE8F08320F001007067FEF79DFC0546F4
:1053E000032700BF706F80077FF54EAFFEF794FC78
:1053F000401B0228F6D9E9E7D8F808501DB1052D61
:105400003CD0012D3ED0306F20F001003067306F6E
:1054100020F0040039E020F480503060FEF77CFC7E
:1054200005460327306880047FF532AFFEF774FC31
:10543000401B0228F6D9C9E7306820F08070306040
:10544000FEF76AFC022C05464FF003070AD100BFA5
:105450003068800138D5FEF75FFC401B0228F7D981
:10546000B4E700BF306880017FF56DAFFEF754FCF4
:10547000401B0228F6D9A9E701278CE6306F40F0DF
:1054800004003067306F40F001003067FEF744FCE5
:10549000002D054641F288344FF0030710D000BFBD
:1054A000306F80073FF5F9AEFEF736FC401BA04297
:1054B000F6D98BE7FEF730FC401BA0423FF686AFE3
:1054C000306F8007F6D4E8E608F12807B06A40F2AA
:1054D000F33188438ECF0843591E40EA02104FF43F
:1054E0007E426FF35F21B06202EB47204FF4FE0271
:1054F00080B2D8F83C300844D8F8381002EB0141AB
:105500004FF0FE4201F4FE0102EB0362084402F098
:10551000FE4108443063F06A4FF6F87120F0010054
:10552000F062706BD8F84820884340EAC20070638C
:10553000F06AD8F8401020F00C000843F062F06ADE
:10554000D8F8441020F002000843F062F06A40F4FA
:105550008030F062F06A40F40030F062F06A40F4AB
:105560008020F062F06A40F00100F062306840F0A4
:1055700080703060FEF7D0FB04460327306880015E
:105580003FF5E1AEFEF7C8FB001B0228F6D91DE788
:10559000F0B581B0C8B10446D0F888001E46154663
:1055A0000F4628B9002084F88400204601F0A4FAB0
:1055B0002420C4F888002068016821F001010160FE
:1055C000204603F07DFA012802D1012001B0F0BD90
:1055D000A06A10B1204603F0C3F82068816841F446
:1055E00080418160816821F4004139438160310448
:1055F000026841EA45516FF31942114301600168A5
:1056000041F001010160204601B0BDE8F04003F027
:1056100017B9000000000000002863D02DE9F04712
:1056200043F6000304460068C4F2000343F2000E90
:1056300043F6004C9842C4F2010EC4F2000C4FF045
:105640000001A16204D0604518BF704540F0B280EF
:10565000E16B0125E268984202F1080205EB511165
:105660004FEAD20202FB01F118BF704540F0908072
:10567000102900F2A38094F8810028B9002084F852
:105680008000204600F0A0F8022084F88100206805
:10569000D4F818E00168BEF1806F21F001010160CB
:1056A00082680FD163682BB1B3F5800F0AD1A16B6B
:1056B00021B13BB9A16BB1F1805F03D1016841F425
:1056C00080510160D4F8049002F4F8125FEA492C8A
:1056D0000AD5E168072907D30168256D21F4807197
:1056E000294304E001207047016821F480710160C2
:1056F000B9F1000FE169A56A41EA0201E26B41EAF2
:10570000050141EA0201D4E90285D4E904A741EA8E
:1057100005018160616BA66B656A41EA0501256A36
:1057200041EA060141EA0A0141EA0701D4E91232DD
:1057300041EA050141EA0201A26D41EA080141EA9C
:10574000030141EA020141EA0E0141EA0901C16097
:1057500009D18168012262F3CC2181608168022233
:1057600062F34A218160016DBCF1000F21F001015B
:10577000016505D5C168626D21F000411143C1602A
:105780000020C4F88400012184F88110BDE8F0876E
:10579000604518BF082911D8984218BF70453FF4DA
:1057A00067AF60457FF467AF102984BF0120BDE873
:1057B000F08760E7E1680F297FF64AAF0120BDE876
:1057C000F08700000000000070B5B6B0044641F25A
:1057D000004502A8B82100263596CDE933663296F9
:1057E000C5F600053196FAF753FF2068A84201D0AC
:1057F00036B070BD4FF4804002904FF0A0402D9025
:1058000002A80396FEF708FD08B1FBF791FC44F2ED
:10581000E040C5F60200416941F020014161416963
:1058200001F0200101910199016841F0010101603D
:10583000006831A900F0010001900198A02031908A
:1058400002203290002033900320349008203590BD
:1058500005F5F630FEF788F936B070BD000000009F
:105860002DE9F047044690F88000012802D102207B
:10587000BDE8F0871D4617460E46D4F8009001207B
:1058800084F88000FEF748FA94F88110012909D1C4
:10589000002E18BF002F0BD1002084F880000120BB
:1058A000BDE8F087002084F880000220BDE8F08782
:1058B0008046032084F881000020C4F88400E66557
:1058C000A4F86070A4F862706066A4F86800A4F898
:1058D0006A00A1682067B1F5C02F6067206804D115
:1058E000016841F40061016004E0C168012262F3D3
:1058F0005241C160D4E900014FF6FF73B1F5800F4A
:10590000426822EA03023A444260026842F001011E
:10591000016003D1016841F400710160E168102960
:1059200033D3B4F86200002800F0A7806E1C0EE0AC
:10593000E16D51F8042B0262E165B4F862000138B0
:10594000A4F86200B4F86200002800F09680206895
:1059500041698907ECD4FEF7DFF9002EF2D0A0EB05
:105960000800A842EED3204602F0AAFB002084F8EB
:105970008000D4F8840040F48070C4F884000120D2
:1059800084F881000320BDE8F087B4F8620007299D
:1059900031D9002871D04FF6FE706E1C471C0FE005
:1059A000E16D31F8020BA9F820003846E165B4F842
:1059B00062100844A4F86200B4F8620000285CD0C9
:1059C00020684169890708D4FEF7A6F9002EF3D0B4
:1059D000A0EB0800A842EFD3C5E7B4F86210022993
:1059E000DED3E16B0029DBD0E16D51F8042B0262BC
:1059F0004FF6FE70DAE700283FD04FF6FE706E1CBF
:105A0000A0F1020A471C0FE0E16D097880F8201030
:105A1000E06D411C3846E165B4F862100844A4F812
:105A20006200B4F8620040B320684169890708D475
:105A3000FEF772F9002EF4D0A0EB0800A842F0D3D4
:105A400091E7B4F86210042908D3E16B412905D32A
:105A5000E16D51F8042B02625046DCE7B4F86210A5
:105A60000229D1D3E16B0029CED0E16D31F8020BD0
:105A7000A9F820004FF6FE70CDE76E1C2068406943
:105A800007070FD4FEF748F9002EF7D0A0EB080067
:105A9000A842F3D3002F05D4D4F8840040F02000AE
:105AA000C4F88400204602F00BFB002084F880003C
:105AB000012084F88100D4F88400002818BF012058
:105AC000BDE8F08700000000704700000000000003
:105AD0007047000000000000704700000000000058
